{
  "_format": "hh-sol-artifact-1",
  "contractName": "TokenPresale",
  "sourceName": "contracts/ChikaraPresale.sol",
  "abi": [
    {
      "inputs": [],
      "stateMutability": "nonpayable",
      "type": "constructor"
    },
    {
      "anonymous": false,
      "inputs": [
        {
          "indexed": false,
          "internalType": "uint8",
          "name": "version",
          "type": "uint8"
        }
      ],
      "name": "Initialized",
      "type": "event"
    },
    {
      "anonymous": false,
      "inputs": [
        {
          "indexed": true,
          "internalType": "address",
          "name": "previousOwner",
          "type": "address"
        },
        {
          "indexed": true,
          "internalType": "address",
          "name": "newOwner",
          "type": "address"
        }
      ],
      "name": "OwnershipTransferred",
      "type": "event"
    },
    {
      "anonymous": false,
      "inputs": [
        {
          "indexed": true,
          "internalType": "uint256",
          "name": "_id",
          "type": "uint256"
        },
        {
          "indexed": false,
          "internalType": "uint256",
          "name": "_totalTokens",
          "type": "uint256"
        },
        {
          "indexed": false,
          "internalType": "uint256",
          "name": "_startTime",
          "type": "uint256"
        },
        {
          "indexed": false,
          "internalType": "uint256",
          "name": "_endTime",
          "type": "uint256"
        },
        {
          "indexed": false,
          "internalType": "uint256",
          "name": "enableBuyWithEth",
          "type": "uint256"
        },
        {
          "indexed": false,
          "internalType": "uint256",
          "name": "enableBuyWithUsdt",
          "type": "uint256"
        }
      ],
      "name": "PresaleCreated",
      "type": "event"
    },
    {
      "anonymous": false,
      "inputs": [
        {
          "indexed": true,
          "internalType": "uint256",
          "name": "id",
          "type": "uint256"
        },
        {
          "indexed": false,
          "internalType": "uint256",
          "name": "timestamp",
          "type": "uint256"
        }
      ],
      "name": "PresalePaused",
      "type": "event"
    },
    {
      "anonymous": false,
      "inputs": [
        {
          "indexed": true,
          "internalType": "address",
          "name": "prevValue",
          "type": "address"
        },
        {
          "indexed": true,
          "internalType": "address",
          "name": "newValue",
          "type": "address"
        },
        {
          "indexed": false,
          "internalType": "uint256",
          "name": "timestamp",
          "type": "uint256"
        }
      ],
      "name": "PresaleTokenAddressUpdated",
      "type": "event"
    },
    {
      "anonymous": false,
      "inputs": [
        {
          "indexed": true,
          "internalType": "uint256",
          "name": "id",
          "type": "uint256"
        },
        {
          "indexed": false,
          "internalType": "uint256",
          "name": "timestamp",
          "type": "uint256"
        }
      ],
      "name": "PresaleUnpaused",
      "type": "event"
    },
    {
      "anonymous": false,
      "inputs": [
        {
          "indexed": true,
          "internalType": "bytes32",
          "name": "key",
          "type": "bytes32"
        },
        {
          "indexed": false,
          "internalType": "uint256",
          "name": "prevValue",
          "type": "uint256"
        },
        {
          "indexed": false,
          "internalType": "uint256",
          "name": "newValue",
          "type": "uint256"
        },
        {
          "indexed": false,
          "internalType": "uint256",
          "name": "timestamp",
          "type": "uint256"
        }
      ],
      "name": "PresaleUpdated",
      "type": "event"
    },
    {
      "anonymous": false,
      "inputs": [
        {
          "indexed": true,
          "internalType": "address",
          "name": "user",
          "type": "address"
        },
        {
          "indexed": true,
          "internalType": "uint256",
          "name": "id",
          "type": "uint256"
        },
        {
          "indexed": true,
          "internalType": "address",
          "name": "purchaseToken",
          "type": "address"
        },
        {
          "indexed": false,
          "internalType": "uint256",
          "name": "tokensBought",
          "type": "uint256"
        },
        {
          "indexed": false,
          "internalType": "uint256",
          "name": "amountPaid",
          "type": "uint256"
        },
        {
          "indexed": false,
          "internalType": "uint256",
          "name": "timestamp",
          "type": "uint256"
        }
      ],
      "name": "TokensBought",
      "type": "event"
    },
    {
      "anonymous": false,
      "inputs": [
        {
          "indexed": true,
          "internalType": "address",
          "name": "user",
          "type": "address"
        },
        {
          "indexed": true,
          "internalType": "uint256",
          "name": "id",
          "type": "uint256"
        },
        {
          "indexed": false,
          "internalType": "uint256",
          "name": "amount",
          "type": "uint256"
        },
        {
          "indexed": false,
          "internalType": "uint256",
          "name": "timestamp",
          "type": "uint256"
        }
      ],
      "name": "TokensClaimed",
      "type": "event"
    },
    {
      "inputs": [],
      "name": "BASE_MULTIPLIER",
      "outputs": [
        {
          "internalType": "uint256",
          "name": "",
          "type": "uint256"
        }
      ],
      "stateMutability": "view",
      "type": "function"
    },
    {
      "inputs": [],
      "name": "MONTH",
      "outputs": [
        {
          "internalType": "uint256",
          "name": "",
          "type": "uint256"
        }
      ],
      "stateMutability": "view",
      "type": "function"
    },
    {
      "inputs": [],
      "name": "USDTInterface",
      "outputs": [
        {
          "internalType": "contract IERC20Upgradeable",
          "name": "",
          "type": "address"
        }
      ],
      "stateMutability": "view",
      "type": "function"
    },
    {
      "inputs": [
        {
          "internalType": "uint256",
          "name": "_id",
          "type": "uint256"
        },
        {
          "internalType": "uint256",
          "name": "amount",
          "type": "uint256"
        }
      ],
      "name": "buyWithEth",
      "outputs": [
        {
          "internalType": "bool",
          "name": "",
          "type": "bool"
        }
      ],
      "stateMutability": "payable",
      "type": "function"
    },
    {
      "inputs": [
        {
          "internalType": "uint256",
          "name": "_id",
          "type": "uint256"
        },
        {
          "internalType": "uint256",
          "name": "amount",
          "type": "uint256"
        }
      ],
      "name": "buyWithUSDT",
      "outputs": [
        {
          "internalType": "bool",
          "name": "",
          "type": "bool"
        }
      ],
      "stateMutability": "nonpayable",
      "type": "function"
    },
    {
      "inputs": [
        {
          "internalType": "uint256",
          "name": "_id",
          "type": "uint256"
        },
        {
          "internalType": "uint256",
          "name": "_enableToBuyWithEth",
          "type": "uint256"
        }
      ],
      "name": "changeEnableBuyWithEth",
      "outputs": [],
      "stateMutability": "nonpayable",
      "type": "function"
    },
    {
      "inputs": [
        {
          "internalType": "uint256",
          "name": "_id",
          "type": "uint256"
        },
        {
          "internalType": "uint256",
          "name": "_enableToBuyWithUsdt",
          "type": "uint256"
        }
      ],
      "name": "changeEnableBuyWithUsdt",
      "outputs": [],
      "stateMutability": "nonpayable",
      "type": "function"
    },
    {
      "inputs": [
        {
          "internalType": "uint256",
          "name": "_id",
          "type": "uint256"
        },
        {
          "internalType": "uint256",
          "name": "_tokensToSell",
          "type": "uint256"
        },
        {
          "internalType": "uint256",
          "name": "_price",
          "type": "uint256"
        },
        {
          "internalType": "uint256",
          "name": "_startTime",
          "type": "uint256"
        },
        {
          "internalType": "uint256",
          "name": "_endTime",
          "type": "uint256"
        }
      ],
      "name": "changeInfosRoundPresale",
      "outputs": [],
      "stateMutability": "nonpayable",
      "type": "function"
    },
    {
      "inputs": [
        {
          "internalType": "uint256",
          "name": "_id",
          "type": "uint256"
        },
        {
          "internalType": "address",
          "name": "_newAddress",
          "type": "address"
        }
      ],
      "name": "changeSaleTokenAddress",
      "outputs": [],
      "stateMutability": "nonpayable",
      "type": "function"
    },
    {
      "inputs": [
        {
          "internalType": "uint256",
          "name": "_id",
          "type": "uint256"
        }
      ],
      "name": "claim",
      "outputs": [
        {
          "internalType": "bool",
          "name": "",
          "type": "bool"
        }
      ],
      "stateMutability": "nonpayable",
      "type": "function"
    },
    {
      "inputs": [
        {
          "internalType": "address",
          "name": "user",
          "type": "address"
        },
        {
          "internalType": "uint256",
          "name": "_id",
          "type": "uint256"
        }
      ],
      "name": "claimableAmount",
      "outputs": [
        {
          "internalType": "uint256",
          "name": "",
          "type": "uint256"
        }
      ],
      "stateMutability": "view",
      "type": "function"
    },
    {
      "inputs": [
        {
          "internalType": "uint256",
          "name": "_startTime",
          "type": "uint256"
        },
        {
          "internalType": "uint256",
          "name": "_endTime",
          "type": "uint256"
        },
        {
          "internalType": "uint256",
          "name": "_price",
          "type": "uint256"
        },
        {
          "internalType": "uint256",
          "name": "_tokensToSell",
          "type": "uint256"
        },
        {
          "internalType": "uint256",
          "name": "_baseDecimals",
          "type": "uint256"
        },
        {
          "internalType": "uint256",
          "name": "_enableBuyWithEth",
          "type": "uint256"
        },
        {
          "internalType": "uint256",
          "name": "_enableBuyWithUsdt",
          "type": "uint256"
        }
      ],
      "name": "createPresale",
      "outputs": [],
      "stateMutability": "nonpayable",
      "type": "function"
    },
    {
      "inputs": [
        {
          "internalType": "uint256",
          "name": "_id",
          "type": "uint256"
        },
        {
          "internalType": "uint256",
          "name": "amount",
          "type": "uint256"
        }
      ],
      "name": "ethBuyHelper",
      "outputs": [
        {
          "internalType": "uint256",
          "name": "ethAmount",
          "type": "uint256"
        }
      ],
      "stateMutability": "view",
      "type": "function"
    },
    {
      "inputs": [
        {
          "internalType": "uint256",
          "name": "_id",
          "type": "uint256"
        }
      ],
      "name": "getEndTime",
      "outputs": [
        {
          "internalType": "uint256",
          "name": "",
          "type": "uint256"
        }
      ],
      "stateMutability": "view",
      "type": "function"
    },
    {
      "inputs": [],
      "name": "getLatestPrice",
      "outputs": [
        {
          "internalType": "uint256",
          "name": "",
          "type": "uint256"
        }
      ],
      "stateMutability": "view",
      "type": "function"
    },
    {
      "inputs": [
        {
          "internalType": "uint256",
          "name": "_id",
          "type": "uint256"
        }
      ],
      "name": "getPresaleInfo",
      "outputs": [
        {
          "components": [
            {
              "internalType": "address",
              "name": "saleToken",
              "type": "address"
            },
            {
              "internalType": "uint256",
              "name": "startTime",
              "type": "uint256"
            },
            {
              "internalType": "uint256",
              "name": "endTime",
              "type": "uint256"
            },
            {
              "internalType": "uint256",
              "name": "price",
              "type": "uint256"
            },
            {
              "internalType": "uint256",
              "name": "tokensToSell",
              "type": "uint256"
            },
            {
              "internalType": "uint256",
              "name": "baseDecimals",
              "type": "uint256"
            },
            {
              "internalType": "uint256",
              "name": "inSale",
              "type": "uint256"
            },
            {
              "internalType": "uint256",
              "name": "enableBuyWithEth",
              "type": "uint256"
            },
            {
              "internalType": "uint256",
              "name": "enableBuyWithUsdt",
              "type": "uint256"
            }
          ],
          "internalType": "struct TokenPresale.Presale",
          "name": "",
          "type": "tuple"
        }
      ],
      "stateMutability": "view",
      "type": "function"
    },
    {
      "inputs": [
        {
          "internalType": "address",
          "name": "_oracle",
          "type": "address"
        },
        {
          "internalType": "address",
          "name": "_usdt",
          "type": "address"
        }
      ],
      "name": "initialize",
      "outputs": [],
      "stateMutability": "nonpayable",
      "type": "function"
    },
    {
      "inputs": [],
      "name": "isClaimAllowed",
      "outputs": [
        {
          "internalType": "bool",
          "name": "",
          "type": "bool"
        }
      ],
      "stateMutability": "view",
      "type": "function"
    },
    {
      "inputs": [],
      "name": "owner",
      "outputs": [
        {
          "internalType": "address",
          "name": "",
          "type": "address"
        }
      ],
      "stateMutability": "view",
      "type": "function"
    },
    {
      "inputs": [
        {
          "internalType": "uint256",
          "name": "_id",
          "type": "uint256"
        }
      ],
      "name": "pausePresale",
      "outputs": [],
      "stateMutability": "nonpayable",
      "type": "function"
    },
    {
      "inputs": [
        {
          "internalType": "uint256",
          "name": "",
          "type": "uint256"
        }
      ],
      "name": "paused",
      "outputs": [
        {
          "internalType": "bool",
          "name": "",
          "type": "bool"
        }
      ],
      "stateMutability": "view",
      "type": "function"
    },
    {
      "inputs": [
        {
          "internalType": "uint256",
          "name": "",
          "type": "uint256"
        }
      ],
      "name": "presale",
      "outputs": [
        {
          "internalType": "address",
          "name": "saleToken",
          "type": "address"
        },
        {
          "internalType": "uint256",
          "name": "startTime",
          "type": "uint256"
        },
        {
          "internalType": "uint256",
          "name": "endTime",
          "type": "uint256"
        },
        {
          "internalType": "uint256",
          "name": "price",
          "type": "uint256"
        },
        {
          "internalType": "uint256",
          "name": "tokensToSell",
          "type": "uint256"
        },
        {
          "internalType": "uint256",
          "name": "baseDecimals",
          "type": "uint256"
        },
        {
          "internalType": "uint256",
          "name": "inSale",
          "type": "uint256"
        },
        {
          "internalType": "uint256",
          "name": "enableBuyWithEth",
          "type": "uint256"
        },
        {
          "internalType": "uint256",
          "name": "enableBuyWithUsdt",
          "type": "uint256"
        }
      ],
      "stateMutability": "view",
      "type": "function"
    },
    {
      "inputs": [],
      "name": "presaleId",
      "outputs": [
        {
          "internalType": "uint256",
          "name": "",
          "type": "uint256"
        }
      ],
      "stateMutability": "view",
      "type": "function"
    },
    {
      "inputs": [],
      "name": "renounceOwnership",
      "outputs": [],
      "stateMutability": "nonpayable",
      "type": "function"
    },
    {
      "inputs": [
        {
          "internalType": "address",
          "name": "newOwner",
          "type": "address"
        }
      ],
      "name": "transferOwnership",
      "outputs": [],
      "stateMutability": "nonpayable",
      "type": "function"
    },
    {
      "inputs": [
        {
          "internalType": "uint256",
          "name": "_id",
          "type": "uint256"
        }
      ],
      "name": "unPausePresale",
      "outputs": [],
      "stateMutability": "nonpayable",
      "type": "function"
    },
    {
      "inputs": [
        {
          "internalType": "uint256",
          "name": "_id",
          "type": "uint256"
        },
        {
          "internalType": "uint256",
          "name": "amount",
          "type": "uint256"
        }
      ],
      "name": "usdtBuyHelper",
      "outputs": [
        {
          "internalType": "uint256",
          "name": "usdPrice",
          "type": "uint256"
        }
      ],
      "stateMutability": "view",
      "type": "function"
    },
    {
      "inputs": [
        {
          "internalType": "address",
          "name": "",
          "type": "address"
        }
      ],
      "name": "userTokens",
      "outputs": [
        {
          "internalType": "uint256",
          "name": "",
          "type": "uint256"
        }
      ],
      "stateMutability": "view",
      "type": "function"
    }
  ],
  "bytecode": "0x60806040523480156200001157600080fd5b5060008060019054906101000a900460ff16159050808015620000445750600160008054906101000a900460ff1660ff16105b806200007b57506200005c306200015e60201b60201c565b1580156200007a5750600160008054906101000a900460ff1660ff16145b5b620000bd576040517f08c379a0000000000000000000000000000000000000000000000000000000008152600401620000b49062000208565b60405180910390fd5b60016000806101000a81548160ff021916908360ff1602179055508015620000fb576001600060016101000a81548160ff0219169083151502179055505b8015620001575760008060016101000a81548160ff0219169083151502179055507f7f26b83ff96e1f2b6a682f133852f6798a09c465da95921460cefb384740249860016040516200014e919062000284565b60405180910390a15b50620002a1565b6000808273ffffffffffffffffffffffffffffffffffffffff163b119050919050565b600082825260208201905092915050565b7f496e697469616c697a61626c653a20636f6e747261637420697320616c72656160008201527f647920696e697469616c697a6564000000000000000000000000000000000000602082015250565b6000620001f0602e8362000181565b9150620001fd8262000192565b604082019050919050565b600060208201905081810360008301526200022381620001e1565b9050919050565b6000819050919050565b600060ff82169050919050565b6000819050919050565b60006200026c6200026662000260846200022a565b62000241565b62000234565b9050919050565b6200027e816200024b565b82525050565b60006020820190506200029b600083018462000273565b92915050565b6143f080620002b16000396000f3fe6080604052600436106101b65760003560e01c8063d01608c1116100ec578063ed498fa81161008a578063f470bb2c11610064578063f470bb2c1461064e578063f57dda3b14610679578063f597573f146106a2578063fe9f676e146106cd576101b6565b8063ed498fa8146105b8578063eeb38ab4146105f5578063f2fde38b14610625576101b6565b8063da24bb3c116100c6578063da24bb3c146104ce578063e18e84f91461050b578063e651372514610536578063e6ab143414610573576101b6565b8063d01608c114610451578063d5999a5c1461047a578063d93f98c5146104a5576101b6565b806372a81036116101595780638da5cb5b116101335780638da5cb5b146103935780638e15f473146103be5780639067b677146103e9578063a2b4439314610426576101b6565b806372a810361461030457806379b8d9381461032d5780638b3babf01461036a576101b6565b8063485cc95511610195578063485cc955146102725780634a6413f71461029b5780636601e96b146102c4578063715018a6146102ed576101b6565b8062dde10e146101bb5780632127fe04146101f8578063379607f514610235575b600080fd5b3480156101c757600080fd5b506101e260048036038101906101dd9190612b6f565b61070a565b6040516101ef9190612bb7565b60405180910390f35b34801561020457600080fd5b5061021f600480360381019061021a9190612bd2565b61072a565b60405161022c9190612c21565b60405180910390f35b34801561024157600080fd5b5061025c60048036038101906102579190612b6f565b6107ce565b6040516102699190612bb7565b60405180910390f35b34801561027e57600080fd5b5061029960048036038101906102949190612c9a565b610bb0565b005b3480156102a757600080fd5b506102c260048036038101906102bd9190612b6f565b610e71565b005b3480156102d057600080fd5b506102eb60048036038101906102e69190612bd2565b610f94565b005b3480156102f957600080fd5b50610302611086565b005b34801561031057600080fd5b5061032b60048036038101906103269190612cda565b61109a565b005b34801561033957600080fd5b50610354600480360381019061034f9190612d55565b61119b565b6040516103619190612c21565b60405180910390f35b34801561037657600080fd5b50610391600480360381019061038c9190612d95565b61128d565b005b34801561039f57600080fd5b506103a86114c8565b6040516103b59190612e46565b60405180910390f35b3480156103ca57600080fd5b506103d36114f2565b6040516103e09190612c21565b60405180910390f35b3480156103f557600080fd5b50610410600480360381019061040b9190612b6f565b6115a6565b60405161041d9190612c21565b60405180910390f35b34801561043257600080fd5b5061043b6115c6565b6040516104489190612c21565b60405180910390f35b34801561045d57600080fd5b5061047860048036038101906104739190612b6f565b6115cc565b005b34801561048657600080fd5b5061048f6116ee565b60405161049c9190612c21565b60405180910390f35b3480156104b157600080fd5b506104cc60048036038101906104c79190612e61565b6116f4565b005b3480156104da57600080fd5b506104f560048036038101906104f09190612b6f565b6118b8565b6040516105029190612f76565b60405180910390f35b34801561051757600080fd5b5061052061198c565b60405161052d9190612c21565b60405180910390f35b34801561054257600080fd5b5061055d60048036038101906105589190612bd2565b611992565b60405161056a9190612bb7565b60405180910390f35b34801561057f57600080fd5b5061059a60048036038101906105959190612b6f565b611fff565b6040516105af99989796959493929190612f92565b60405180910390f35b3480156105c457600080fd5b506105df60048036038101906105da919061301f565b61206d565b6040516105ec9190612c21565b60405180910390f35b61060f600480360381019061060a9190612bd2565b612085565b60405161061c9190612bb7565b60405180910390f35b34801561063157600080fd5b5061064c6004803603810190610647919061301f565b61251e565b005b34801561065a57600080fd5b506106636125a1565b6040516106709190612bb7565b60405180910390f35b34801561068557600080fd5b506106a0600480360381019061069b9190612bd2565b6125b4565b005b3480156106ae57600080fd5b506106b76126a6565b6040516106c491906130ab565b60405180910390f35b3480156106d957600080fd5b506106f460048036038101906106ef9190612bd2565b6126cc565b6040516107019190612c21565b60405180910390f35b609c6020528060005260406000206000915054906101000a900460ff1681565b60008260008111801561073f57506097548111155b61077e576040517f08c379a000000000000000000000000000000000000000000000000000000000815260040161077590613123565b60405180910390fd5b6000609d600086815260200190815260200160002060030154846107a29190613172565b90506107ac6114f2565b609854826107ba9190613172565b6107c491906131e3565b9250505092915050565b6000806107db338461119b565b9050609a60009054906101000a900460ff1661082c576040517f08c379a000000000000000000000000000000000000000000000000000000000815260040161082390613260565b60405180910390fd5b6000811161086f576040517f08c379a0000000000000000000000000000000000000000000000000000000008152600401610866906132cc565b60405180910390fd5b600073ffffffffffffffffffffffffffffffffffffffff16609d600085815260200190815260200160002060000160009054906101000a900473ffffffffffffffffffffffffffffffffffffffff1673ffffffffffffffffffffffffffffffffffffffff1603610914576040517f08c379a000000000000000000000000000000000000000000000000000000000815260040161090b90613338565b60405180910390fd5b609d600084815260200190815260200160002060000160009054906101000a900473ffffffffffffffffffffffffffffffffffffffff1673ffffffffffffffffffffffffffffffffffffffff166370a08231306040518263ffffffff1660e01b81526004016109839190612e46565b602060405180830381865afa1580156109a0573d6000803e3d6000fd5b505050506040513d601f19601f820116820180604052508101906109c4919061336d565b811115610a06576040517f08c379a00000000000000000000000000000000000000000000000000000000081526004016109fd9061340c565b60405180910390fd5b80609e60003373ffffffffffffffffffffffffffffffffffffffff1673ffffffffffffffffffffffffffffffffffffffff1681526020019081526020016000206000828254610a55919061342c565b925050819055506000609d600085815260200190815260200160002060000160009054906101000a900473ffffffffffffffffffffffffffffffffffffffff1673ffffffffffffffffffffffffffffffffffffffff1663a9059cbb33846040518363ffffffff1660e01b8152600401610acf929190613460565b6020604051808303816000875af1158015610aee573d6000803e3d6000fd5b505050506040513d601f19601f82011682018060405250810190610b1291906134b5565b905080610b54576040517f08c379a0000000000000000000000000000000000000000000000000000000008152600401610b4b9061352e565b60405180910390fd5b833373ffffffffffffffffffffffffffffffffffffffff167fe49649ad7d04a14b0d2a43dae89f207c0822143ff6f88a6480e88907e4e5c5488442604051610b9d92919061354e565b60405180910390a3600192505050919050565b60008060019054906101000a900460ff16159050808015610be15750600160008054906101000a900460ff1660ff16105b80610c0e5750610bf03061275e565b158015610c0d5750600160008054906101000a900460ff1660ff16145b5b610c4d576040517f08c379a0000000000000000000000000000000000000000000000000000000008152600401610c44906135e9565b60405180910390fd5b60016000806101000a81548160ff021916908360ff1602179055508015610c8a576001600060016101000a81548160ff0219169083151502179055505b600073ffffffffffffffffffffffffffffffffffffffff168373ffffffffffffffffffffffffffffffffffffffff1603610cf9576040517f08c379a0000000000000000000000000000000000000000000000000000000008152600401610cf090613655565b60405180910390fd5b600073ffffffffffffffffffffffffffffffffffffffff168273ffffffffffffffffffffffffffffffffffffffff1603610d68576040517f08c379a0000000000000000000000000000000000000000000000000000000008152600401610d5f906136c1565b60405180910390fd5b610d70612781565b610d786127e2565b82609b60006101000a81548173ffffffffffffffffffffffffffffffffffffffff021916908373ffffffffffffffffffffffffffffffffffffffff16021790555081609a60016101000a81548173ffffffffffffffffffffffffffffffffffffffff021916908373ffffffffffffffffffffffffffffffffffffffff160217905550670de0b6b3a764000060988190555062278d006099819055508015610e6c5760008060016101000a81548160ff0219169083151502179055507f7f26b83ff96e1f2b6a682f133852f6798a09c465da95921460cefb38474024986001604051610e639190613729565b60405180910390a15b505050565b80600081118015610e8457506097548111155b610ec3576040517f08c379a0000000000000000000000000000000000000000000000000000000008152600401610eba90613123565b60405180910390fd5b610ecb61283a565b609c600083815260200190815260200160002060009054906101000a900460ff1615610f2c576040517f08c379a0000000000000000000000000000000000000000000000000000000008152600401610f2390613790565b60405180910390fd5b6001609c600084815260200190815260200160002060006101000a81548160ff021916908315150217905550817f927e6cd2dce24f32508868820cdc35f09d9de0f4b44e945114110125196fba9f42604051610f889190612c21565b60405180910390a25050565b81600081118015610fa757506097548111155b610fe6576040517f08c379a0000000000000000000000000000000000000000000000000000000008152600401610fdd90613123565b60405180910390fd5b610fee61283a565b6000609d600085815260200190815260200160002060070154905082609d6000868152602001908152602001600020600701819055507f454e41424c455f4255595f574954485f455448000000000000000000000000007f1b2f8f894211ac7f12917463adb7fc11bb80dec57f46ff148b23b4521968ed74828542604051611078939291906137b0565b60405180910390a250505050565b61108e61283a565b61109860006128b8565b565b6110a261283a565b600083116110e5576040517f08c379a00000000000000000000000000000000000000000000000000000000081526004016110dc90613833565b60405180910390fd5b60008411611128576040517f08c379a000000000000000000000000000000000000000000000000000000000815260040161111f9061389f565b60405180910390fd5b83609d60008781526020019081526020016000206004018190555082609d60008781526020019081526020016000206003018190555081609d60008781526020019081526020016000206001018190555080609d6000878152602001908152602001600020600201819055505050505050565b6000816000811180156111b057506097548111155b6111ef576040517f08c379a00000000000000000000000000000000000000000000000000000000081526004016111e690613123565b60405180910390fd5b609a60009054906101000a900460ff1661123e576040517f08c379a000000000000000000000000000000000000000000000000000000000815260040161123590613260565b60405180910390fd5b6000609e60008673ffffffffffffffffffffffffffffffffffffffff1673ffffffffffffffffffffffffffffffffffffffff168152602001908152602001600020549050809250505092915050565b61129561283a565b600085116112d8576040517f08c379a00000000000000000000000000000000000000000000000000000000081526004016112cf90613833565b60405180910390fd5b6000841161131b576040517f08c379a00000000000000000000000000000000000000000000000000000000081526004016113129061389f565b60405180910390fd5b6000831161135e576040517f08c379a00000000000000000000000000000000000000000000000000000000081526004016113559061390b565b60405180910390fd5b609760008154809291906113719061392b565b9190505550604051806101200160405280600073ffffffffffffffffffffffffffffffffffffffff16815260200188815260200187815260200186815260200185815260200184815260200185815260200183815260200182815250609d6000609754815260200190815260200160002060008201518160000160006101000a81548173ffffffffffffffffffffffffffffffffffffffff021916908373ffffffffffffffffffffffffffffffffffffffff1602179055506020820151816001015560408201518160020155606082015181600301556080820151816004015560a0820151816005015560c0820151816006015560e0820151816007015561010082015181600801559050506097547f6648ba9663ba131947faee0ab9c9583e88253861da27c608392c016e7c107a0f85898986866040516114b7959493929190613973565b60405180910390a250505050505050565b6000606560009054906101000a900473ffffffffffffffffffffffffffffffffffffffff16905090565b600080609b60009054906101000a900473ffffffffffffffffffffffffffffffffffffffff1673ffffffffffffffffffffffffffffffffffffffff1663feaf968c6040518163ffffffff1660e01b815260040160a060405180830381865afa158015611562573d6000803e3d6000fd5b505050506040513d601f19601f820116820180604052508101906115869190613a3e565b5050509150506402540be4008161159d9190613ab9565b90508091505090565b6000609d6000838152602001908152602001600020600201549050919050565b60985481565b806000811180156115df57506097548111155b61161e576040517f08c379a000000000000000000000000000000000000000000000000000000000815260040161161590613123565b60405180910390fd5b61162661283a565b609c600083815260200190815260200160002060009054906101000a900460ff16611686576040517f08c379a000000000000000000000000000000000000000000000000000000000815260040161167d90613b7d565b60405180910390fd5b6000609c600084815260200190815260200160002060006101000a81548160ff021916908315150217905550817ff608654a6d8e1785594639dd55babb61d7ae157382015f904a24224e50333b1d426040516116e29190612c21565b60405180910390a25050565b60995481565b8160008111801561170757506097548111155b611746576040517f08c379a000000000000000000000000000000000000000000000000000000000815260040161173d90613123565b60405180910390fd5b61174e61283a565b600073ffffffffffffffffffffffffffffffffffffffff168273ffffffffffffffffffffffffffffffffffffffff16036117bd576040517f08c379a00000000000000000000000000000000000000000000000000000000081526004016117b490613be9565b60405180910390fd5b6000609d600085815260200190815260200160002060000160009054906101000a900473ffffffffffffffffffffffffffffffffffffffff16905082609d600086815260200190815260200160002060000160006101000a81548173ffffffffffffffffffffffffffffffffffffffff021916908373ffffffffffffffffffffffffffffffffffffffff1602179055508273ffffffffffffffffffffffffffffffffffffffff168173ffffffffffffffffffffffffffffffffffffffff167f08bc1d537b06e3eae23dbd7475fa799c807a3eab60257650edc088d96d923d4c426040516118aa9190612c21565b60405180910390a350505050565b6118c0612ad2565b609d6000838152602001908152602001600020604051806101200160405290816000820160009054906101000a900473ffffffffffffffffffffffffffffffffffffffff1673ffffffffffffffffffffffffffffffffffffffff1673ffffffffffffffffffffffffffffffffffffffff168152602001600182015481526020016002820154815260200160038201548152602001600482015481526020016005820154815260200160068201548152602001600782015481526020016008820154815250509050919050565b60975481565b6000826000811180156119a757506097548111155b6119e6576040517f08c379a00000000000000000000000000000000000000000000000000000000081526004016119dd90613123565b60405180910390fd5b8383609d6000838152602001908152602001600020600101544210158015611a245750609d6000838152602001908152602001600020600201544211155b611a63576040517f08c379a0000000000000000000000000000000000000000000000000000000008152600401611a5a90613c55565b60405180910390fd5b600081118015611a895750609d6000838152602001908152602001600020600601548111155b611ac8576040517f08c379a0000000000000000000000000000000000000000000000000000000008152600401611abf90613cc1565b60405180910390fd5b609c600087815260200190815260200160002060009054906101000a900460ff1615611b29576040517f08c379a0000000000000000000000000000000000000000000000000000000008152600401611b2090613d2d565b60405180910390fd5b6000609d60008881526020019081526020016000206008015411611b82576040517f08c379a0000000000000000000000000000000000000000000000000000000008152600401611b7990613d99565b60405180910390fd5b6000609d60008881526020019081526020016000206003015486611ba69190613172565b905064e8d4a5100081611bb991906131e3565b905085609d60008981526020019081526020016000206006016000828254611be1919061342c565b925050819055506000609d6000898152602001908152602001600020604051806101200160405290816000820160009054906101000a900473ffffffffffffffffffffffffffffffffffffffff1673ffffffffffffffffffffffffffffffffffffffff1673ffffffffffffffffffffffffffffffffffffffff1681526020016001820154815260200160028201548152602001600382015481526020016004820154815260200160058201548152602001600682015481526020016007820154815260200160088201548152505090508060a0015187611cc19190613172565b609e60003373ffffffffffffffffffffffffffffffffffffffff1673ffffffffffffffffffffffffffffffffffffffff1681526020019081526020016000206000828254611d0f9190613db9565b925050819055506000609a60019054906101000a900473ffffffffffffffffffffffffffffffffffffffff1673ffffffffffffffffffffffffffffffffffffffff1663dd62ed3e33306040518363ffffffff1660e01b8152600401611d75929190613ded565b602060405180830381865afa158015611d92573d6000803e3d6000fd5b505050506040513d601f19601f82011682018060405250810190611db6919061336d565b905080831115611dfb576040517f08c379a0000000000000000000000000000000000000000000000000000000008152600401611df290613e88565b60405180910390fd5b6000609a60019054906101000a900473ffffffffffffffffffffffffffffffffffffffff1673ffffffffffffffffffffffffffffffffffffffff1633611e3f6114c8565b86604051602401611e5293929190613ea8565b6040516020818303038152906040527f23b872dd000000000000000000000000000000000000000000000000000000007bffffffffffffffffffffffffffffffffffffffffffffffffffffffff19166020820180517bffffffffffffffffffffffffffffffffffffffffffffffffffffffff8381831617835250505050604051611edc9190613f50565b6000604051808303816000865af19150503d8060008114611f19576040519150601f19603f3d011682016040523d82523d6000602084013e611f1e565b606091505b5050905080611f62576040517f08c379a0000000000000000000000000000000000000000000000000000000008152600401611f5990613fb3565b60405180910390fd5b609a60019054906101000a900473ffffffffffffffffffffffffffffffffffffffff1673ffffffffffffffffffffffffffffffffffffffff168a3373ffffffffffffffffffffffffffffffffffffffff167f4d8aead3491b7eba4b5c7a65fc17e493b9e63f9e433522fc5f6a85a168fc9d368c8842604051611fe6939291906137b0565b60405180910390a4600197505050505050505092915050565b609d6020528060005260406000206000915090508060000160009054906101000a900473ffffffffffffffffffffffffffffffffffffffff16908060010154908060020154908060030154908060040154908060050154908060060154908060070154908060080154905089565b609e6020528060005260406000206000915090505481565b60008260008111801561209a57506097548111155b6120d9576040517f08c379a00000000000000000000000000000000000000000000000000000000081526004016120d090613123565b60405180910390fd5b8383609d60008381526020019081526020016000206001015442101580156121175750609d6000838152602001908152602001600020600201544211155b612156576040517f08c379a000000000000000000000000000000000000000000000000000000000815260040161214d90613c55565b60405180910390fd5b60008111801561217c5750609d6000838152602001908152602001600020600601548111155b6121bb576040517f08c379a00000000000000000000000000000000000000000000000000000000081526004016121b290613cc1565b60405180910390fd5b6121c361297e565b609c600087815260200190815260200160002060009054906101000a900460ff1615612224576040517f08c379a000000000000000000000000000000000000000000000000000000000815260040161221b90613d2d565b60405180910390fd5b6000609d6000888152602001908152602001600020600701541161227d576040517f08c379a00000000000000000000000000000000000000000000000000000000081526004016122749061401f565b60405180910390fd5b6000609d600088815260200190815260200160002060030154866122a19190613172565b905060006122ad6114f2565b609854836122bb9190613172565b6122c591906131e3565b90508034101561230a576040517f08c379a00000000000000000000000000000000000000000000000000000000081526004016123019061408b565b60405180910390fd5b60008134612318919061342c565b905087609d60008b81526020019081526020016000206006016000828254612340919061342c565b925050819055506000609d60008b8152602001908152602001600020604051806101200160405290816000820160009054906101000a900473ffffffffffffffffffffffffffffffffffffffff1673ffffffffffffffffffffffffffffffffffffffff1673ffffffffffffffffffffffffffffffffffffffff1681526020016001820154815260200160028201548152602001600382015481526020016004820154815260200160058201548152602001600682015481526020016007820154815260200160088201548152505090508060a00151896124209190613172565b609e60003373ffffffffffffffffffffffffffffffffffffffff1673ffffffffffffffffffffffffffffffffffffffff168152602001908152602001600020600082825461246e9190613db9565b925050819055506124866124806114c8565b846129cd565b600082111561249a5761249933836129cd565b5b600073ffffffffffffffffffffffffffffffffffffffff168a3373ffffffffffffffffffffffffffffffffffffffff167f4d8aead3491b7eba4b5c7a65fc17e493b9e63f9e433522fc5f6a85a168fc9d368c87426040516124fd939291906137b0565b60405180910390a46001975050505050612515612ac1565b50505092915050565b61252661283a565b600073ffffffffffffffffffffffffffffffffffffffff168173ffffffffffffffffffffffffffffffffffffffff1603612595576040517f08c379a000000000000000000000000000000000000000000000000000000000815260040161258c9061411d565b60405180910390fd5b61259e816128b8565b50565b609a60009054906101000a900460ff1681565b816000811180156125c757506097548111155b612606576040517f08c379a00000000000000000000000000000000000000000000000000000000081526004016125fd90613123565b60405180910390fd5b61260e61283a565b6000609d600085815260200190815260200160002060080154905082609d6000868152602001908152602001600020600801819055507f454e41424c455f4255595f574954485f555344540000000000000000000000007f1b2f8f894211ac7f12917463adb7fc11bb80dec57f46ff148b23b4521968ed74828542604051612698939291906137b0565b60405180910390a250505050565b609a60019054906101000a900473ffffffffffffffffffffffffffffffffffffffff1681565b6000826000811180156126e157506097548111155b612720576040517f08c379a000000000000000000000000000000000000000000000000000000000815260040161271790613123565b60405180910390fd5b609d600085815260200190815260200160002060030154836127429190613172565b915064e8d4a510008261275591906131e3565b91505092915050565b6000808273ffffffffffffffffffffffffffffffffffffffff163b119050919050565b600060019054906101000a900460ff166127d0576040517f08c379a00000000000000000000000000000000000000000000000000000000081526004016127c7906141af565b60405180910390fd5b6127e06127db612aca565b6128b8565b565b600060019054906101000a900460ff16612831576040517f08c379a0000000000000000000000000000000000000000000000000000000008152600401612828906141af565b60405180910390fd5b60018081905550565b612842612aca565b73ffffffffffffffffffffffffffffffffffffffff166128606114c8565b73ffffffffffffffffffffffffffffffffffffffff16146128b6576040517f08c379a00000000000000000000000000000000000000000000000000000000081526004016128ad9061421b565b60405180910390fd5b565b6000606560009054906101000a900473ffffffffffffffffffffffffffffffffffffffff16905081606560006101000a81548173ffffffffffffffffffffffffffffffffffffffff021916908373ffffffffffffffffffffffffffffffffffffffff1602179055508173ffffffffffffffffffffffffffffffffffffffff168173ffffffffffffffffffffffffffffffffffffffff167f8be0079c531659141344cd1fd0a4f28419497f9722a3daafe3b4186f6b6457e060405160405180910390a35050565b6002600154036129c3576040517f08c379a00000000000000000000000000000000000000000000000000000000081526004016129ba90614287565b60405180910390fd5b6002600181905550565b80471015612a10576040517f08c379a0000000000000000000000000000000000000000000000000000000008152600401612a07906142f3565b60405180910390fd5b60008273ffffffffffffffffffffffffffffffffffffffff1682604051612a3690614339565b60006040518083038185875af1925050503d8060008114612a73576040519150601f19603f3d011682016040523d82523d6000602084013e612a78565b606091505b5050905080612abc576040517f08c379a0000000000000000000000000000000000000000000000000000000008152600401612ab39061439a565b60405180910390fd5b505050565b60018081905550565b600033905090565b604051806101200160405280600073ffffffffffffffffffffffffffffffffffffffff16815260200160008152602001600081526020016000815260200160008152602001600081526020016000815260200160008152602001600081525090565b600080fd5b6000819050919050565b612b4c81612b39565b8114612b5757600080fd5b50565b600081359050612b6981612b43565b92915050565b600060208284031215612b8557612b84612b34565b5b6000612b9384828501612b5a565b91505092915050565b60008115159050919050565b612bb181612b9c565b82525050565b6000602082019050612bcc6000830184612ba8565b92915050565b60008060408385031215612be957612be8612b34565b5b6000612bf785828601612b5a565b9250506020612c0885828601612b5a565b9150509250929050565b612c1b81612b39565b82525050565b6000602082019050612c366000830184612c12565b92915050565b600073ffffffffffffffffffffffffffffffffffffffff82169050919050565b6000612c6782612c3c565b9050919050565b612c7781612c5c565b8114612c8257600080fd5b50565b600081359050612c9481612c6e565b92915050565b60008060408385031215612cb157612cb0612b34565b5b6000612cbf85828601612c85565b9250506020612cd085828601612c85565b9150509250929050565b600080600080600060a08688031215612cf657612cf5612b34565b5b6000612d0488828901612b5a565b9550506020612d1588828901612b5a565b9450506040612d2688828901612b5a565b9350506060612d3788828901612b5a565b9250506080612d4888828901612b5a565b9150509295509295909350565b60008060408385031215612d6c57612d6b612b34565b5b6000612d7a85828601612c85565b9250506020612d8b85828601612b5a565b9150509250929050565b600080600080600080600060e0888a031215612db457612db3612b34565b5b6000612dc28a828b01612b5a565b9750506020612dd38a828b01612b5a565b9650506040612de48a828b01612b5a565b9550506060612df58a828b01612b5a565b9450506080612e068a828b01612b5a565b93505060a0612e178a828b01612b5a565b92505060c0612e288a828b01612b5a565b91505092959891949750929550565b612e4081612c5c565b82525050565b6000602082019050612e5b6000830184612e37565b92915050565b60008060408385031215612e7857612e77612b34565b5b6000612e8685828601612b5a565b9250506020612e9785828601612c85565b9150509250929050565b612eaa81612c5c565b82525050565b612eb981612b39565b82525050565b61012082016000820151612ed66000850182612ea1565b506020820151612ee96020850182612eb0565b506040820151612efc6040850182612eb0565b506060820151612f0f6060850182612eb0565b506080820151612f226080850182612eb0565b5060a0820151612f3560a0850182612eb0565b5060c0820151612f4860c0850182612eb0565b5060e0820151612f5b60e0850182612eb0565b50610100820151612f70610100850182612eb0565b50505050565b600061012082019050612f8c6000830184612ebf565b92915050565b600061012082019050612fa8600083018c612e37565b612fb5602083018b612c12565b612fc2604083018a612c12565b612fcf6060830189612c12565b612fdc6080830188612c12565b612fe960a0830187612c12565b612ff660c0830186612c12565b61300360e0830185612c12565b613011610100830184612c12565b9a9950505050505050505050565b60006020828403121561303557613034612b34565b5b600061304384828501612c85565b91505092915050565b6000819050919050565b600061307161306c61306784612c3c565b61304c565b612c3c565b9050919050565b600061308382613056565b9050919050565b600061309582613078565b9050919050565b6130a58161308a565b82525050565b60006020820190506130c0600083018461309c565b92915050565b600082825260208201905092915050565b7f496e76616c69642070726573616c652069640000000000000000000000000000600082015250565b600061310d6012836130c6565b9150613118826130d7565b602082019050919050565b6000602082019050818103600083015261313c81613100565b9050919050565b7f4e487b7100000000000000000000000000000000000000000000000000000000600052601160045260246000fd5b600061317d82612b39565b915061318883612b39565b925082820261319681612b39565b915082820484148315176131ad576131ac613143565b5b5092915050565b7f4e487b7100000000000000000000000000000000000000000000000000000000600052601260045260246000fd5b60006131ee82612b39565b91506131f983612b39565b925082613209576132086131b4565b5b828204905092915050565b7f436c61696d206e6f7420616c6c6f776564000000000000000000000000000000600082015250565b600061324a6011836130c6565b915061325582613214565b602082019050919050565b600060208201905081810360008301526132798161323d565b9050919050565b7f5a65726f20636c61696d20616d6f756e74000000000000000000000000000000600082015250565b60006132b66011836130c6565b91506132c182613280565b602082019050919050565b600060208201905081810360008301526132e5816132a9565b9050919050565b7f50726573616c6520746f6b656e2061646472657373206e6f7420736574000000600082015250565b6000613322601d836130c6565b915061332d826132ec565b602082019050919050565b6000602082019050818103600083015261335181613315565b9050919050565b60008151905061336781612b43565b92915050565b60006020828403121561338357613382612b34565b5b600061339184828501613358565b91505092915050565b7f4e6f7420656e6f75676820746f6b656e7320696e2074686520636f6e7472616360008201527f7400000000000000000000000000000000000000000000000000000000000000602082015250565b60006133f66021836130c6565b91506134018261339a565b604082019050919050565b60006020820190508181036000830152613425816133e9565b9050919050565b600061343782612b39565b915061344283612b39565b925082820390508181111561345a57613459613143565b5b92915050565b60006040820190506134756000830185612e37565b6134826020830184612c12565b9392505050565b61349281612b9c565b811461349d57600080fd5b50565b6000815190506134af81613489565b92915050565b6000602082840312156134cb576134ca612b34565b5b60006134d9848285016134a0565b91505092915050565b7f546f6b656e207472616e73666572206661696c65640000000000000000000000600082015250565b60006135186015836130c6565b9150613523826134e2565b602082019050919050565b600060208201905081810360008301526135478161350b565b9050919050565b60006040820190506135636000830185612c12565b6135706020830184612c12565b9392505050565b7f496e697469616c697a61626c653a20636f6e747261637420697320616c72656160008201527f647920696e697469616c697a6564000000000000000000000000000000000000602082015250565b60006135d3602e836130c6565b91506135de82613577565b604082019050919050565b60006020820190508181036000830152613602816135c6565b9050919050565b7f5a65726f2061676772656761746f722061646472657373000000000000000000600082015250565b600061363f6017836130c6565b915061364a82613609565b602082019050919050565b6000602082019050818103600083015261366e81613632565b9050919050565b7f5a65726f20555344542061646472657373000000000000000000000000000000600082015250565b60006136ab6011836130c6565b91506136b682613675565b602082019050919050565b600060208201905081810360008301526136da8161369e565b9050919050565b6000819050919050565b600060ff82169050919050565b600061371361370e613709846136e1565b61304c565b6136eb565b9050919050565b613723816136f8565b82525050565b600060208201905061373e600083018461371a565b92915050565b7f416c726561647920706175736564000000000000000000000000000000000000600082015250565b600061377a600e836130c6565b915061378582613744565b602082019050919050565b600060208201905081810360008301526137a98161376d565b9050919050565b60006060820190506137c56000830186612c12565b6137d26020830185612c12565b6137df6040830184612c12565b949350505050565b7f5a65726f20707269636500000000000000000000000000000000000000000000600082015250565b600061381d600a836130c6565b9150613828826137e7565b602082019050919050565b6000602082019050818103600083015261384c81613810565b9050919050565b7f5a65726f20746f6b656e7320746f2073656c6c00000000000000000000000000600082015250565b60006138896013836130c6565b915061389482613853565b602082019050919050565b600060208201905081810360008301526138b88161387c565b9050919050565b7f5a65726f20646563696d616c7320666f722074686520746f6b656e0000000000600082015250565b60006138f5601b836130c6565b9150613900826138bf565b602082019050919050565b60006020820190508181036000830152613924816138e8565b9050919050565b600061393682612b39565b91507fffffffffffffffffffffffffffffffffffffffffffffffffffffffffffffffff820361396857613967613143565b5b600182019050919050565b600060a0820190506139886000830188612c12565b6139956020830187612c12565b6139a26040830186612c12565b6139af6060830185612c12565b6139bc6080830184612c12565b9695505050505050565b600069ffffffffffffffffffff82169050919050565b6139e5816139c6565b81146139f057600080fd5b50565b600081519050613a02816139dc565b92915050565b6000819050919050565b613a1b81613a08565b8114613a2657600080fd5b50565b600081519050613a3881613a12565b92915050565b600080600080600060a08688031215613a5a57613a59612b34565b5b6000613a68888289016139f3565b9550506020613a7988828901613a29565b9450506040613a8a88828901613358565b9350506060613a9b88828901613358565b9250506080613aac888289016139f3565b9150509295509295909350565b6000613ac482613a08565b9150613acf83613a08565b9250828202613add81613a08565b91507f80000000000000000000000000000000000000000000000000000000000000008414600084121615613b1557613b14613143565b5b8282058414831517613b2a57613b29613143565b5b5092915050565b7f4e6f742070617573656400000000000000000000000000000000000000000000600082015250565b6000613b67600a836130c6565b9150613b7282613b31565b602082019050919050565b60006020820190508181036000830152613b9681613b5a565b9050919050565b7f5a65726f20746f6b656e20616464726573730000000000000000000000000000600082015250565b6000613bd36012836130c6565b9150613bde82613b9d565b602082019050919050565b60006020820190508181036000830152613c0281613bc6565b9050919050565b7f496e76616c69642074696d6520666f7220627579696e67000000000000000000600082015250565b6000613c3f6017836130c6565b9150613c4a82613c09565b602082019050919050565b60006020820190508181036000830152613c6e81613c32565b9050919050565b7f496e76616c69642073616c6520616d6f756e7400000000000000000000000000600082015250565b6000613cab6013836130c6565b9150613cb682613c75565b602082019050919050565b60006020820190508181036000830152613cda81613c9e565b9050919050565b7f50726573616c6520706175736564000000000000000000000000000000000000600082015250565b6000613d17600e836130c6565b9150613d2282613ce1565b602082019050919050565b60006020820190508181036000830152613d4681613d0a565b9050919050565b7f4e6f7420616c6c6f77656420746f206275792077697468205553445400000000600082015250565b6000613d83601c836130c6565b9150613d8e82613d4d565b602082019050919050565b60006020820190508181036000830152613db281613d76565b9050919050565b6000613dc482612b39565b9150613dcf83612b39565b9250828201905080821115613de757613de6613143565b5b92915050565b6000604082019050613e026000830185612e37565b613e0f6020830184612e37565b9392505050565b7f4d616b65207375726520746f2061646420656e6f75676820616c6c6f77616e6360008201527f6500000000000000000000000000000000000000000000000000000000000000602082015250565b6000613e726021836130c6565b9150613e7d82613e16565b604082019050919050565b60006020820190508181036000830152613ea181613e65565b9050919050565b6000606082019050613ebd6000830186612e37565b613eca6020830185612e37565b613ed76040830184612c12565b949350505050565b600081519050919050565b600081905092915050565b60005b83811015613f13578082015181840152602081019050613ef8565b60008484015250505050565b6000613f2a82613edf565b613f348185613eea565b9350613f44818560208601613ef5565b80840191505092915050565b6000613f5c8284613f1f565b915081905092915050565b7f546f6b656e207061796d656e74206661696c6564000000000000000000000000600082015250565b6000613f9d6014836130c6565b9150613fa882613f67565b602082019050919050565b60006020820190508181036000830152613fcc81613f90565b9050919050565b7f4e6f7420616c6c6f77656420746f206275792077697468204554480000000000600082015250565b6000614009601b836130c6565b915061401482613fd3565b602082019050919050565b6000602082019050818103600083015261403881613ffc565b9050919050565b7f4c657373207061796d656e740000000000000000000000000000000000000000600082015250565b6000614075600c836130c6565b91506140808261403f565b602082019050919050565b600060208201905081810360008301526140a481614068565b9050919050565b7f4f776e61626c653a206e6577206f776e657220697320746865207a65726f206160008201527f6464726573730000000000000000000000000000000000000000000000000000602082015250565b60006141076026836130c6565b9150614112826140ab565b604082019050919050565b60006020820190508181036000830152614136816140fa565b9050919050565b7f496e697469616c697a61626c653a20636f6e7472616374206973206e6f74206960008201527f6e697469616c697a696e67000000000000000000000000000000000000000000602082015250565b6000614199602b836130c6565b91506141a48261413d565b604082019050919050565b600060208201905081810360008301526141c88161418c565b9050919050565b7f4f776e61626c653a2063616c6c6572206973206e6f7420746865206f776e6572600082015250565b60006142056020836130c6565b9150614210826141cf565b602082019050919050565b60006020820190508181036000830152614234816141f8565b9050919050565b7f5265656e7472616e637947756172643a207265656e7472616e742063616c6c00600082015250565b6000614271601f836130c6565b915061427c8261423b565b602082019050919050565b600060208201905081810360008301526142a081614264565b9050919050565b7f4c6f772062616c616e6365000000000000000000000000000000000000000000600082015250565b60006142dd600b836130c6565b91506142e8826142a7565b602082019050919050565b6000602082019050818103600083015261430c816142d0565b9050919050565b50565b6000614323600083613eea565b915061432e82614313565b600082019050919050565b600061434482614316565b9150819050919050565b7f455448205061796d656e74206661696c65640000000000000000000000000000600082015250565b60006143846012836130c6565b915061438f8261434e565b602082019050919050565b600060208201905081810360008301526143b381614377565b905091905056fea26469706673582212206d38eb37c435dd2de1500fa2b0fd2975c0ea0de3ba0cd9341238646300e5b47d64736f6c63430008130033",
  "linkReferences": {},
  "deployedLinkReferences": {}
}