{
  "_format": "hh-sol-artifact-1",
  "contractName": "TokenPresale",
  "sourceName": "contracts/ChikaraPresale.sol",
  "abi": [
    {
      "inputs": [],
      "stateMutability": "nonpayable",
      "type": "constructor"
    },
    {
      "anonymous": false,
      "inputs": [
        {
          "indexed": false,
          "internalType": "uint8",
          "name": "version",
          "type": "uint8"
        }
      ],
      "name": "Initialized",
      "type": "event"
    },
    {
      "anonymous": false,
      "inputs": [
        {
          "indexed": true,
          "internalType": "address",
          "name": "previousOwner",
          "type": "address"
        },
        {
          "indexed": true,
          "internalType": "address",
          "name": "newOwner",
          "type": "address"
        }
      ],
      "name": "OwnershipTransferred",
      "type": "event"
    },
    {
      "anonymous": false,
      "inputs": [
        {
          "indexed": true,
          "internalType": "uint256",
          "name": "_id",
          "type": "uint256"
        },
        {
          "indexed": false,
          "internalType": "uint256",
          "name": "_totalTokens",
          "type": "uint256"
        },
        {
          "indexed": false,
          "internalType": "uint256",
          "name": "_startTime",
          "type": "uint256"
        },
        {
          "indexed": false,
          "internalType": "uint256",
          "name": "_endTime",
          "type": "uint256"
        },
        {
          "indexed": false,
          "internalType": "uint256",
          "name": "enableBuyWithEth",
          "type": "uint256"
        },
        {
          "indexed": false,
          "internalType": "uint256",
          "name": "enableBuyWithUsdt",
          "type": "uint256"
        }
      ],
      "name": "PresaleCreated",
      "type": "event"
    },
    {
      "anonymous": false,
      "inputs": [
        {
          "indexed": true,
          "internalType": "uint256",
          "name": "id",
          "type": "uint256"
        },
        {
          "indexed": false,
          "internalType": "uint256",
          "name": "timestamp",
          "type": "uint256"
        }
      ],
      "name": "PresalePaused",
      "type": "event"
    },
    {
      "anonymous": false,
      "inputs": [
        {
          "indexed": true,
          "internalType": "address",
          "name": "prevValue",
          "type": "address"
        },
        {
          "indexed": true,
          "internalType": "address",
          "name": "newValue",
          "type": "address"
        },
        {
          "indexed": false,
          "internalType": "uint256",
          "name": "timestamp",
          "type": "uint256"
        }
      ],
      "name": "PresaleTokenAddressUpdated",
      "type": "event"
    },
    {
      "anonymous": false,
      "inputs": [
        {
          "indexed": true,
          "internalType": "uint256",
          "name": "id",
          "type": "uint256"
        },
        {
          "indexed": false,
          "internalType": "uint256",
          "name": "timestamp",
          "type": "uint256"
        }
      ],
      "name": "PresaleUnpaused",
      "type": "event"
    },
    {
      "anonymous": false,
      "inputs": [
        {
          "indexed": true,
          "internalType": "bytes32",
          "name": "key",
          "type": "bytes32"
        },
        {
          "indexed": false,
          "internalType": "uint256",
          "name": "prevValue",
          "type": "uint256"
        },
        {
          "indexed": false,
          "internalType": "uint256",
          "name": "newValue",
          "type": "uint256"
        },
        {
          "indexed": false,
          "internalType": "uint256",
          "name": "timestamp",
          "type": "uint256"
        }
      ],
      "name": "PresaleUpdated",
      "type": "event"
    },
    {
      "anonymous": false,
      "inputs": [
        {
          "indexed": true,
          "internalType": "address",
          "name": "user",
          "type": "address"
        },
        {
          "indexed": true,
          "internalType": "uint256",
          "name": "id",
          "type": "uint256"
        },
        {
          "indexed": true,
          "internalType": "address",
          "name": "purchaseToken",
          "type": "address"
        },
        {
          "indexed": false,
          "internalType": "uint256",
          "name": "tokensBought",
          "type": "uint256"
        },
        {
          "indexed": false,
          "internalType": "uint256",
          "name": "amountPaid",
          "type": "uint256"
        },
        {
          "indexed": false,
          "internalType": "uint256",
          "name": "timestamp",
          "type": "uint256"
        }
      ],
      "name": "TokensBought",
      "type": "event"
    },
    {
      "anonymous": false,
      "inputs": [
        {
          "indexed": true,
          "internalType": "address",
          "name": "user",
          "type": "address"
        },
        {
          "indexed": true,
          "internalType": "uint256",
          "name": "id",
          "type": "uint256"
        },
        {
          "indexed": false,
          "internalType": "uint256",
          "name": "amount",
          "type": "uint256"
        },
        {
          "indexed": false,
          "internalType": "uint256",
          "name": "timestamp",
          "type": "uint256"
        }
      ],
      "name": "TokensClaimed",
      "type": "event"
    },
    {
      "inputs": [],
      "name": "BASE_MULTIPLIER",
      "outputs": [
        {
          "internalType": "uint256",
          "name": "",
          "type": "uint256"
        }
      ],
      "stateMutability": "view",
      "type": "function"
    },
    {
      "inputs": [],
      "name": "MONTH",
      "outputs": [
        {
          "internalType": "uint256",
          "name": "",
          "type": "uint256"
        }
      ],
      "stateMutability": "view",
      "type": "function"
    },
    {
      "inputs": [],
      "name": "USDTInterface",
      "outputs": [
        {
          "internalType": "contract IERC20Upgradeable",
          "name": "",
          "type": "address"
        }
      ],
      "stateMutability": "view",
      "type": "function"
    },
    {
      "inputs": [],
      "name": "amountCollectedInEth",
      "outputs": [
        {
          "internalType": "uint256",
          "name": "",
          "type": "uint256"
        }
      ],
      "stateMutability": "view",
      "type": "function"
    },
    {
      "inputs": [],
      "name": "amountCollectedInUsdt",
      "outputs": [
        {
          "internalType": "uint256",
          "name": "",
          "type": "uint256"
        }
      ],
      "stateMutability": "view",
      "type": "function"
    },
    {
      "inputs": [
        {
          "internalType": "uint256",
          "name": "_id",
          "type": "uint256"
        },
        {
          "internalType": "uint256",
          "name": "amount",
          "type": "uint256"
        }
      ],
      "name": "buyWithEth",
      "outputs": [
        {
          "internalType": "bool",
          "name": "",
          "type": "bool"
        }
      ],
      "stateMutability": "payable",
      "type": "function"
    },
    {
      "inputs": [
        {
          "internalType": "uint256",
          "name": "_id",
          "type": "uint256"
        },
        {
          "internalType": "uint256",
          "name": "amount",
          "type": "uint256"
        }
      ],
      "name": "buyWithUSDT",
      "outputs": [
        {
          "internalType": "bool",
          "name": "",
          "type": "bool"
        }
      ],
      "stateMutability": "nonpayable",
      "type": "function"
    },
    {
      "inputs": [
        {
          "internalType": "uint256",
          "name": "_id",
          "type": "uint256"
        },
        {
          "internalType": "uint256",
          "name": "_enableToBuyWithEth",
          "type": "uint256"
        }
      ],
      "name": "changeEnableBuyWithEth",
      "outputs": [],
      "stateMutability": "nonpayable",
      "type": "function"
    },
    {
      "inputs": [
        {
          "internalType": "uint256",
          "name": "_id",
          "type": "uint256"
        },
        {
          "internalType": "uint256",
          "name": "_enableToBuyWithUsdt",
          "type": "uint256"
        }
      ],
      "name": "changeEnableBuyWithUsdt",
      "outputs": [],
      "stateMutability": "nonpayable",
      "type": "function"
    },
    {
      "inputs": [
        {
          "internalType": "uint256",
          "name": "_id",
          "type": "uint256"
        },
        {
          "internalType": "uint256",
          "name": "_tokensToSell",
          "type": "uint256"
        },
        {
          "internalType": "uint256",
          "name": "_price",
          "type": "uint256"
        },
        {
          "internalType": "uint256",
          "name": "_startTime",
          "type": "uint256"
        },
        {
          "internalType": "uint256",
          "name": "_endTime",
          "type": "uint256"
        }
      ],
      "name": "changeInfosRoundPresale",
      "outputs": [],
      "stateMutability": "nonpayable",
      "type": "function"
    },
    {
      "inputs": [
        {
          "internalType": "uint256",
          "name": "_id",
          "type": "uint256"
        },
        {
          "internalType": "address",
          "name": "_newAddress",
          "type": "address"
        }
      ],
      "name": "changeSaleTokenAddress",
      "outputs": [],
      "stateMutability": "nonpayable",
      "type": "function"
    },
    {
      "inputs": [
        {
          "internalType": "uint256",
          "name": "_id",
          "type": "uint256"
        }
      ],
      "name": "claim",
      "outputs": [
        {
          "internalType": "bool",
          "name": "",
          "type": "bool"
        }
      ],
      "stateMutability": "nonpayable",
      "type": "function"
    },
    {
      "inputs": [
        {
          "internalType": "address",
          "name": "user",
          "type": "address"
        },
        {
          "internalType": "uint256",
          "name": "_id",
          "type": "uint256"
        }
      ],
      "name": "claimableAmount",
      "outputs": [
        {
          "internalType": "uint256",
          "name": "",
          "type": "uint256"
        }
      ],
      "stateMutability": "view",
      "type": "function"
    },
    {
      "inputs": [
        {
          "internalType": "uint256",
          "name": "_startTime",
          "type": "uint256"
        },
        {
          "internalType": "uint256",
          "name": "_endTime",
          "type": "uint256"
        },
        {
          "internalType": "uint256",
          "name": "_price",
          "type": "uint256"
        },
        {
          "internalType": "uint256",
          "name": "_tokensToSell",
          "type": "uint256"
        },
        {
          "internalType": "uint256",
          "name": "_baseDecimals",
          "type": "uint256"
        },
        {
          "internalType": "uint256",
          "name": "_enableBuyWithEth",
          "type": "uint256"
        },
        {
          "internalType": "uint256",
          "name": "_enableBuyWithUsdt",
          "type": "uint256"
        }
      ],
      "name": "createPresale",
      "outputs": [],
      "stateMutability": "nonpayable",
      "type": "function"
    },
    {
      "inputs": [
        {
          "internalType": "uint256",
          "name": "_id",
          "type": "uint256"
        },
        {
          "internalType": "uint256",
          "name": "amount",
          "type": "uint256"
        }
      ],
      "name": "ethBuyHelper",
      "outputs": [
        {
          "internalType": "uint256",
          "name": "ethAmount",
          "type": "uint256"
        }
      ],
      "stateMutability": "view",
      "type": "function"
    },
    {
      "inputs": [
        {
          "internalType": "uint256",
          "name": "_id",
          "type": "uint256"
        }
      ],
      "name": "getEndTime",
      "outputs": [
        {
          "internalType": "uint256",
          "name": "",
          "type": "uint256"
        }
      ],
      "stateMutability": "view",
      "type": "function"
    },
    {
      "inputs": [],
      "name": "getLatestPrice",
      "outputs": [
        {
          "internalType": "uint256",
          "name": "",
          "type": "uint256"
        }
      ],
      "stateMutability": "view",
      "type": "function"
    },
    {
      "inputs": [
        {
          "internalType": "uint256",
          "name": "_id",
          "type": "uint256"
        }
      ],
      "name": "getPresaleInfo",
      "outputs": [
        {
          "components": [
            {
              "internalType": "address",
              "name": "saleToken",
              "type": "address"
            },
            {
              "internalType": "uint256",
              "name": "startTime",
              "type": "uint256"
            },
            {
              "internalType": "uint256",
              "name": "endTime",
              "type": "uint256"
            },
            {
              "internalType": "uint256",
              "name": "price",
              "type": "uint256"
            },
            {
              "internalType": "uint256",
              "name": "tokensToSell",
              "type": "uint256"
            },
            {
              "internalType": "uint256",
              "name": "baseDecimals",
              "type": "uint256"
            },
            {
              "internalType": "uint256",
              "name": "inSale",
              "type": "uint256"
            },
            {
              "internalType": "uint256",
              "name": "enableBuyWithEth",
              "type": "uint256"
            },
            {
              "internalType": "uint256",
              "name": "enableBuyWithUsdt",
              "type": "uint256"
            }
          ],
          "internalType": "struct TokenPresale.Presale",
          "name": "",
          "type": "tuple"
        }
      ],
      "stateMutability": "view",
      "type": "function"
    },
    {
      "inputs": [],
      "name": "getTotalInUSDT",
      "outputs": [
        {
          "internalType": "uint256",
          "name": "",
          "type": "uint256"
        }
      ],
      "stateMutability": "view",
      "type": "function"
    },
    {
      "inputs": [],
      "name": "getValueInUSDT",
      "outputs": [
        {
          "internalType": "uint256",
          "name": "",
          "type": "uint256"
        }
      ],
      "stateMutability": "view",
      "type": "function"
    },
    {
      "inputs": [
        {
          "internalType": "address",
          "name": "_oracle",
          "type": "address"
        },
        {
          "internalType": "address",
          "name": "_usdt",
          "type": "address"
        },
        {
          "internalType": "address",
          "name": "_multisig",
          "type": "address"
        }
      ],
      "name": "initialize",
      "outputs": [],
      "stateMutability": "nonpayable",
      "type": "function"
    },
    {
      "inputs": [],
      "name": "isClaimAllowed",
      "outputs": [
        {
          "internalType": "bool",
          "name": "",
          "type": "bool"
        }
      ],
      "stateMutability": "view",
      "type": "function"
    },
    {
      "inputs": [],
      "name": "owner",
      "outputs": [
        {
          "internalType": "address",
          "name": "",
          "type": "address"
        }
      ],
      "stateMutability": "view",
      "type": "function"
    },
    {
      "inputs": [
        {
          "internalType": "uint256",
          "name": "_id",
          "type": "uint256"
        }
      ],
      "name": "pausePresale",
      "outputs": [],
      "stateMutability": "nonpayable",
      "type": "function"
    },
    {
      "inputs": [
        {
          "internalType": "uint256",
          "name": "",
          "type": "uint256"
        }
      ],
      "name": "paused",
      "outputs": [
        {
          "internalType": "bool",
          "name": "",
          "type": "bool"
        }
      ],
      "stateMutability": "view",
      "type": "function"
    },
    {
      "inputs": [
        {
          "internalType": "uint256",
          "name": "",
          "type": "uint256"
        }
      ],
      "name": "presale",
      "outputs": [
        {
          "internalType": "address",
          "name": "saleToken",
          "type": "address"
        },
        {
          "internalType": "uint256",
          "name": "startTime",
          "type": "uint256"
        },
        {
          "internalType": "uint256",
          "name": "endTime",
          "type": "uint256"
        },
        {
          "internalType": "uint256",
          "name": "price",
          "type": "uint256"
        },
        {
          "internalType": "uint256",
          "name": "tokensToSell",
          "type": "uint256"
        },
        {
          "internalType": "uint256",
          "name": "baseDecimals",
          "type": "uint256"
        },
        {
          "internalType": "uint256",
          "name": "inSale",
          "type": "uint256"
        },
        {
          "internalType": "uint256",
          "name": "enableBuyWithEth",
          "type": "uint256"
        },
        {
          "internalType": "uint256",
          "name": "enableBuyWithUsdt",
          "type": "uint256"
        }
      ],
      "stateMutability": "view",
      "type": "function"
    },
    {
      "inputs": [],
      "name": "presaleId",
      "outputs": [
        {
          "internalType": "uint256",
          "name": "",
          "type": "uint256"
        }
      ],
      "stateMutability": "view",
      "type": "function"
    },
    {
      "inputs": [],
      "name": "renounceOwnership",
      "outputs": [],
      "stateMutability": "nonpayable",
      "type": "function"
    },
    {
      "inputs": [
        {
          "internalType": "address",
          "name": "newOwner",
          "type": "address"
        }
      ],
      "name": "transferOwnership",
      "outputs": [],
      "stateMutability": "nonpayable",
      "type": "function"
    },
    {
      "inputs": [
        {
          "internalType": "uint256",
          "name": "_id",
          "type": "uint256"
        }
      ],
      "name": "unPausePresale",
      "outputs": [],
      "stateMutability": "nonpayable",
      "type": "function"
    },
    {
      "inputs": [
        {
          "internalType": "uint256",
          "name": "_id",
          "type": "uint256"
        },
        {
          "internalType": "uint256",
          "name": "amount",
          "type": "uint256"
        }
      ],
      "name": "usdtBuyHelper",
      "outputs": [
        {
          "internalType": "uint256",
          "name": "usdPrice",
          "type": "uint256"
        }
      ],
      "stateMutability": "view",
      "type": "function"
    },
    {
      "inputs": [
        {
          "internalType": "address",
          "name": "",
          "type": "address"
        }
      ],
      "name": "userTokens",
      "outputs": [
        {
          "internalType": "uint256",
          "name": "",
          "type": "uint256"
        }
      ],
      "stateMutability": "view",
      "type": "function"
    }
  ],
  "bytecode": "0x60806040523480156200001157600080fd5b5060008060019054906101000a900460ff16159050808015620000445750600160008054906101000a900460ff1660ff16105b806200007b57506200005c306200015e60201b60201c565b1580156200007a5750600160008054906101000a900460ff1660ff16145b5b620000bd576040517f08c379a0000000000000000000000000000000000000000000000000000000008152600401620000b49062000208565b60405180910390fd5b60016000806101000a81548160ff021916908360ff1602179055508015620000fb576001600060016101000a81548160ff0219169083151502179055505b8015620001575760008060016101000a81548160ff0219169083151502179055507f7f26b83ff96e1f2b6a682f133852f6798a09c465da95921460cefb384740249860016040516200014e919062000284565b60405180910390a15b50620002a1565b6000808273ffffffffffffffffffffffffffffffffffffffff163b119050919050565b600082825260208201905092915050565b7f496e697469616c697a61626c653a20636f6e747261637420697320616c72656160008201527f647920696e697469616c697a6564000000000000000000000000000000000000602082015250565b6000620001f0602e8362000181565b9150620001fd8262000192565b604082019050919050565b600060208201905081810360008301526200022381620001e1565b9050919050565b6000819050919050565b600060ff82169050919050565b6000819050919050565b60006200026c6200026662000260846200022a565b62000241565b62000234565b9050919050565b6200027e816200024b565b82525050565b60006020820190506200029b600083018462000273565b92915050565b61467d80620002b16000396000f3fe6080604052600436106101e25760003560e01c8063c0c53b8b11610102578063e6ab143411610095578063f470bb2c11610064578063f470bb2c14610726578063f57dda3b14610751578063f597573f1461077a578063fe9f676e146107a5576101e2565b8063e6ab14341461064b578063ed498fa814610690578063eeb38ab4146106cd578063f2fde38b146106fd576101e2565b8063da24bb3c116100d1578063da24bb3c1461057b578063ddfa6e98146105b8578063e18e84f9146105e3578063e65137251461060e576101e2565b8063c0c53b8b146104d5578063d01608c1146104fe578063d5999a5c14610527578063d93f98c514610552576101e2565b806372a810361161017a5780638da5cb5b116101495780638da5cb5b146104175780638e15f473146104425780639067b6771461046d578063a2b44393146104aa576101e2565b806372a810361461035d57806379b8d93814610386578063851ea34b146103c35780638b3babf0146103ee576101e2565b80634a6413f7116101b65780634a6413f7146102c957806362572405146102f25780636601e96b1461031d578063715018a614610346576101e2565b8062dde10e146101e75780632127fe0414610224578063379607f5146102615780633dec241e1461029e575b600080fd5b3480156101f357600080fd5b5061020e60048036038101906102099190612de9565b6107e2565b60405161021b9190612e31565b60405180910390f35b34801561023057600080fd5b5061024b60048036038101906102469190612e4c565b610802565b6040516102589190612e9b565b60405180910390f35b34801561026d57600080fd5b5061028860048036038101906102839190612de9565b6108a6565b6040516102959190612e31565b60405180910390f35b3480156102aa57600080fd5b506102b3610c88565b6040516102c09190612e9b565b60405180910390f35b3480156102d557600080fd5b506102f060048036038101906102eb9190612de9565b610c8e565b005b3480156102fe57600080fd5b50610307610db1565b6040516103149190612e9b565b60405180910390f35b34801561032957600080fd5b50610344600480360381019061033f9190612e4c565b610db7565b005b34801561035257600080fd5b5061035b610ea9565b005b34801561036957600080fd5b50610384600480360381019061037f9190612eb6565b610ebd565b005b34801561039257600080fd5b506103ad60048036038101906103a89190612f8f565b610fbe565b6040516103ba9190612e9b565b60405180910390f35b3480156103cf57600080fd5b506103d86110b0565b6040516103e59190612e9b565b60405180910390f35b3480156103fa57600080fd5b5061041560048036038101906104109190612fcf565b6110e8565b005b34801561042357600080fd5b5061042c611323565b6040516104399190613080565b60405180910390f35b34801561044e57600080fd5b5061045761134d565b6040516104649190612e9b565b60405180910390f35b34801561047957600080fd5b50610494600480360381019061048f9190612de9565b611401565b6040516104a19190612e9b565b60405180910390f35b3480156104b657600080fd5b506104bf611421565b6040516104cc9190612e9b565b60405180910390f35b3480156104e157600080fd5b506104fc60048036038101906104f7919061309b565b611427565b005b34801561050a57600080fd5b5061052560048036038101906105209190612de9565b61172a565b005b34801561053357600080fd5b5061053c61184c565b6040516105499190612e9b565b60405180910390f35b34801561055e57600080fd5b50610579600480360381019061057491906130ee565b611852565b005b34801561058757600080fd5b506105a2600480360381019061059d9190612de9565b611a16565b6040516105af9190613203565b60405180910390f35b3480156105c457600080fd5b506105cd611aea565b6040516105da9190612e9b565b60405180910390f35b3480156105ef57600080fd5b506105f8611b9e565b6040516106059190612e9b565b60405180910390f35b34801561061a57600080fd5b5061063560048036038101906106309190612e4c565b611ba4565b6040516106429190612e31565b60405180910390f35b34801561065757600080fd5b50610672600480360381019061066d9190612de9565b612245565b6040516106879998979695949392919061321f565b60405180910390f35b34801561069c57600080fd5b506106b760048036038101906106b291906132ac565b6122b3565b6040516106c49190612e9b565b60405180910390f35b6106e760048036038101906106e29190612e4c565b6122cb565b6040516106f49190612e31565b60405180910390f35b34801561070957600080fd5b50610724600480360381019061071f91906132ac565b612798565b005b34801561073257600080fd5b5061073b61281b565b6040516107489190612e31565b60405180910390f35b34801561075d57600080fd5b5061077860048036038101906107739190612e4c565b61282e565b005b34801561078657600080fd5b5061078f612920565b60405161079c9190613338565b60405180910390f35b3480156107b157600080fd5b506107cc60048036038101906107c79190612e4c565b612946565b6040516107d99190612e9b565b60405180910390f35b60a06020528060005260406000206000915054906101000a900460ff1681565b60008260008111801561081757506097548111155b610856576040517f08c379a000000000000000000000000000000000000000000000000000000000815260040161084d906133b0565b60405180910390fd5b600060a16000868152602001908152602001600020600301548461087a91906133ff565b905061088461134d565b6098548261089291906133ff565b61089c9190613470565b9250505092915050565b6000806108b33384610fbe565b9050609a60009054906101000a900460ff16610904576040517f08c379a00000000000000000000000000000000000000000000000000000000081526004016108fb906134ed565b60405180910390fd5b60008111610947576040517f08c379a000000000000000000000000000000000000000000000000000000000815260040161093e90613559565b60405180910390fd5b600073ffffffffffffffffffffffffffffffffffffffff1660a1600085815260200190815260200160002060000160009054906101000a900473ffffffffffffffffffffffffffffffffffffffff1673ffffffffffffffffffffffffffffffffffffffff16036109ec576040517f08c379a00000000000000000000000000000000000000000000000000000000081526004016109e3906135c5565b60405180910390fd5b60a1600084815260200190815260200160002060000160009054906101000a900473ffffffffffffffffffffffffffffffffffffffff1673ffffffffffffffffffffffffffffffffffffffff166370a08231306040518263ffffffff1660e01b8152600401610a5b9190613080565b602060405180830381865afa158015610a78573d6000803e3d6000fd5b505050506040513d601f19601f82011682018060405250810190610a9c91906135fa565b811115610ade576040517f08c379a0000000000000000000000000000000000000000000000000000000008152600401610ad590613699565b60405180910390fd5b8060a260003373ffffffffffffffffffffffffffffffffffffffff1673ffffffffffffffffffffffffffffffffffffffff1681526020019081526020016000206000828254610b2d91906136b9565b92505081905550600060a1600085815260200190815260200160002060000160009054906101000a900473ffffffffffffffffffffffffffffffffffffffff1673ffffffffffffffffffffffffffffffffffffffff1663a9059cbb33846040518363ffffffff1660e01b8152600401610ba79291906136ed565b6020604051808303816000875af1158015610bc6573d6000803e3d6000fd5b505050506040513d601f19601f82011682018060405250810190610bea9190613742565b905080610c2c576040517f08c379a0000000000000000000000000000000000000000000000000000000008152600401610c23906137bb565b60405180910390fd5b833373ffffffffffffffffffffffffffffffffffffffff167fe49649ad7d04a14b0d2a43dae89f207c0822143ff6f88a6480e88907e4e5c5488442604051610c759291906137db565b60405180910390a3600192505050919050565b609b5481565b80600081118015610ca157506097548111155b610ce0576040517f08c379a0000000000000000000000000000000000000000000000000000000008152600401610cd7906133b0565b60405180910390fd5b610ce86129d8565b60a0600083815260200190815260200160002060009054906101000a900460ff1615610d49576040517f08c379a0000000000000000000000000000000000000000000000000000000008152600401610d4090613850565b60405180910390fd5b600160a0600084815260200190815260200160002060006101000a81548160ff021916908315150217905550817f927e6cd2dce24f32508868820cdc35f09d9de0f4b44e945114110125196fba9f42604051610da59190612e9b565b60405180910390a25050565b609c5481565b81600081118015610dca57506097548111155b610e09576040517f08c379a0000000000000000000000000000000000000000000000000000000008152600401610e00906133b0565b60405180910390fd5b610e116129d8565b600060a160008581526020019081526020016000206007015490508260a16000868152602001908152602001600020600701819055507f454e41424c455f4255595f574954485f455448000000000000000000000000007f1b2f8f894211ac7f12917463adb7fc11bb80dec57f46ff148b23b4521968ed74828542604051610e9b93929190613870565b60405180910390a250505050565b610eb16129d8565b610ebb6000612a56565b565b610ec56129d8565b60008311610f08576040517f08c379a0000000000000000000000000000000000000000000000000000000008152600401610eff906138f3565b60405180910390fd5b60008411610f4b576040517f08c379a0000000000000000000000000000000000000000000000000000000008152600401610f429061395f565b60405180910390fd5b8360a16000878152602001908152602001600020600401819055508260a16000878152602001908152602001600020600301819055508160a16000878152602001908152602001600020600101819055508060a16000878152602001908152602001600020600201819055505050505050565b600081600081118015610fd357506097548111155b611012576040517f08c379a0000000000000000000000000000000000000000000000000000000008152600401611009906133b0565b60405180910390fd5b609a60009054906101000a900460ff16611061576040517f08c379a0000000000000000000000000000000000000000000000000000000008152600401611058906134ed565b60405180910390fd5b600060a260008673ffffffffffffffffffffffffffffffffffffffff1673ffffffffffffffffffffffffffffffffffffffff168152602001908152602001600020549050809250505092915050565b6000806110bb611aea565b90506000670de0b6b3a764000082476110d491906133ff565b6110de9190613470565b9050809250505090565b6110f06129d8565b60008511611133576040517f08c379a000000000000000000000000000000000000000000000000000000000815260040161112a906138f3565b60405180910390fd5b60008411611176576040517f08c379a000000000000000000000000000000000000000000000000000000000815260040161116d9061395f565b60405180910390fd5b600083116111b9576040517f08c379a00000000000000000000000000000000000000000000000000000000081526004016111b0906139cb565b60405180910390fd5b609760008154809291906111cc906139eb565b9190505550604051806101200160405280600073ffffffffffffffffffffffffffffffffffffffff1681526020018881526020018781526020018681526020018581526020018481526020018581526020018381526020018281525060a16000609754815260200190815260200160002060008201518160000160006101000a81548173ffffffffffffffffffffffffffffffffffffffff021916908373ffffffffffffffffffffffffffffffffffffffff1602179055506020820151816001015560408201518160020155606082015181600301556080820151816004015560a0820151816005015560c0820151816006015560e0820151816007015561010082015181600801559050506097547f6648ba9663ba131947faee0ab9c9583e88253861da27c608392c016e7c107a0f8589898686604051611312959493929190613a33565b60405180910390a250505050505050565b6000606560009054906101000a900473ffffffffffffffffffffffffffffffffffffffff16905090565b600080609f60009054906101000a900473ffffffffffffffffffffffffffffffffffffffff1673ffffffffffffffffffffffffffffffffffffffff1663feaf968c6040518163ffffffff1660e01b815260040160a060405180830381865afa1580156113bd573d6000803e3d6000fd5b505050506040513d601f19601f820116820180604052508101906113e19190613afe565b5050509150506402540be400816113f89190613b79565b90508091505090565b600060a16000838152602001908152602001600020600201549050919050565b60985481565b60008060019054906101000a900460ff161590508080156114585750600160008054906101000a900460ff1660ff16105b80611485575061146730612b1c565b1580156114845750600160008054906101000a900460ff1660ff16145b5b6114c4576040517f08c379a00000000000000000000000000000000000000000000000000000000081526004016114bb90613c63565b60405180910390fd5b60016000806101000a81548160ff021916908360ff1602179055508015611501576001600060016101000a81548160ff0219169083151502179055505b600073ffffffffffffffffffffffffffffffffffffffff168473ffffffffffffffffffffffffffffffffffffffff1603611570576040517f08c379a000000000000000000000000000000000000000000000000000000000815260040161156790613ccf565b60405180910390fd5b600073ffffffffffffffffffffffffffffffffffffffff168373ffffffffffffffffffffffffffffffffffffffff16036115df576040517f08c379a00000000000000000000000000000000000000000000000000000000081526004016115d690613d3b565b60405180910390fd5b6115e7612b3f565b6115ef612ba0565b83609f60006101000a81548173ffffffffffffffffffffffffffffffffffffffff021916908373ffffffffffffffffffffffffffffffffffffffff16021790555082609e60006101000a81548173ffffffffffffffffffffffffffffffffffffffff021916908373ffffffffffffffffffffffffffffffffffffffff16021790555081609d60006101000a81548173ffffffffffffffffffffffffffffffffffffffff021916908373ffffffffffffffffffffffffffffffffffffffff160217905550670de0b6b3a764000060988190555062278d0060998190555080156117245760008060016101000a81548160ff0219169083151502179055507f7f26b83ff96e1f2b6a682f133852f6798a09c465da95921460cefb3847402498600160405161171b9190613da3565b60405180910390a15b50505050565b8060008111801561173d57506097548111155b61177c576040517f08c379a0000000000000000000000000000000000000000000000000000000008152600401611773906133b0565b60405180910390fd5b6117846129d8565b60a0600083815260200190815260200160002060009054906101000a900460ff166117e4576040517f08c379a00000000000000000000000000000000000000000000000000000000081526004016117db90613e0a565b60405180910390fd5b600060a0600084815260200190815260200160002060006101000a81548160ff021916908315150217905550817ff608654a6d8e1785594639dd55babb61d7ae157382015f904a24224e50333b1d426040516118409190612e9b565b60405180910390a25050565b60995481565b8160008111801561186557506097548111155b6118a4576040517f08c379a000000000000000000000000000000000000000000000000000000000815260040161189b906133b0565b60405180910390fd5b6118ac6129d8565b600073ffffffffffffffffffffffffffffffffffffffff168273ffffffffffffffffffffffffffffffffffffffff160361191b576040517f08c379a000000000000000000000000000000000000000000000000000000000815260040161191290613e76565b60405180910390fd5b600060a1600085815260200190815260200160002060000160009054906101000a900473ffffffffffffffffffffffffffffffffffffffff1690508260a1600086815260200190815260200160002060000160006101000a81548173ffffffffffffffffffffffffffffffffffffffff021916908373ffffffffffffffffffffffffffffffffffffffff1602179055508273ffffffffffffffffffffffffffffffffffffffff168173ffffffffffffffffffffffffffffffffffffffff167f08bc1d537b06e3eae23dbd7475fa799c807a3eab60257650edc088d96d923d4c42604051611a089190612e9b565b60405180910390a350505050565b611a1e612d4c565b60a16000838152602001908152602001600020604051806101200160405290816000820160009054906101000a900473ffffffffffffffffffffffffffffffffffffffff1673ffffffffffffffffffffffffffffffffffffffff1673ffffffffffffffffffffffffffffffffffffffff168152602001600182015481526020016002820154815260200160038201548152602001600482015481526020016005820154815260200160068201548152602001600782015481526020016008820154815250509050919050565b600080609f60009054906101000a900473ffffffffffffffffffffffffffffffffffffffff1673ffffffffffffffffffffffffffffffffffffffff1663feaf968c6040518163ffffffff1660e01b815260040160a060405180830381865afa158015611b5a573d6000803e3d6000fd5b505050506040513d601f19601f82011682018060405250810190611b7e9190613afe565b505050915050670de0b6b3a764000081611b989190613b79565b91505090565b60975481565b600082600081118015611bb957506097548111155b611bf8576040517f08c379a0000000000000000000000000000000000000000000000000000000008152600401611bef906133b0565b60405180910390fd5b838360a16000838152602001908152602001600020600101544210158015611c36575060a16000838152602001908152602001600020600201544211155b611c75576040517f08c379a0000000000000000000000000000000000000000000000000000000008152600401611c6c90613ee2565b60405180910390fd5b600081118015611c9b575060a16000838152602001908152602001600020600601548111155b611cda576040517f08c379a0000000000000000000000000000000000000000000000000000000008152600401611cd190613f4e565b60405180910390fd5b60a0600087815260200190815260200160002060009054906101000a900460ff1615611d3b576040517f08c379a0000000000000000000000000000000000000000000000000000000008152600401611d3290613fba565b60405180910390fd5b600060a160008881526020019081526020016000206008015411611d94576040517f08c379a0000000000000000000000000000000000000000000000000000000008152600401611d8b90614026565b60405180910390fd5b600060a160008881526020019081526020016000206003015486611db891906133ff565b905064e8d4a5100081611dcb9190613470565b90508560a160008981526020019081526020016000206006016000828254611df391906136b9565b92505081905550600060a16000898152602001908152602001600020604051806101200160405290816000820160009054906101000a900473ffffffffffffffffffffffffffffffffffffffff1673ffffffffffffffffffffffffffffffffffffffff1673ffffffffffffffffffffffffffffffffffffffff1681526020016001820154815260200160028201548152602001600382015481526020016004820154815260200160058201548152602001600682015481526020016007820154815260200160088201548152505090508060a0015187611ed391906133ff565b60a260003373ffffffffffffffffffffffffffffffffffffffff1673ffffffffffffffffffffffffffffffffffffffff1681526020019081526020016000206000828254611f219190614046565b925050819055506000609e60009054906101000a900473ffffffffffffffffffffffffffffffffffffffff1673ffffffffffffffffffffffffffffffffffffffff1663dd62ed3e33306040518363ffffffff1660e01b8152600401611f8792919061407a565b602060405180830381865afa158015611fa4573d6000803e3d6000fd5b505050506040513d601f19601f82011682018060405250810190611fc891906135fa565b90508083111561200d576040517f08c379a000000000000000000000000000000000000000000000000000000000815260040161200490614115565b60405180910390fd5b6000609e60009054906101000a900473ffffffffffffffffffffffffffffffffffffffff1673ffffffffffffffffffffffffffffffffffffffff1633609d60009054906101000a900473ffffffffffffffffffffffffffffffffffffffff168660405160240161207f93929190614135565b6040516020818303038152906040527f23b872dd000000000000000000000000000000000000000000000000000000007bffffffffffffffffffffffffffffffffffffffffffffffffffffffff19166020820180517bffffffffffffffffffffffffffffffffffffffffffffffffffffffff838183161783525050505060405161210991906141dd565b6000604051808303816000865af19150503d8060008114612146576040519150601f19603f3d011682016040523d82523d6000602084013e61214b565b606091505b505090508061218f576040517f08c379a000000000000000000000000000000000000000000000000000000000815260040161218690614240565b60405180910390fd5b83609b60008282546121a19190614046565b92505081905550609e60009054906101000a900473ffffffffffffffffffffffffffffffffffffffff1673ffffffffffffffffffffffffffffffffffffffff168a3373ffffffffffffffffffffffffffffffffffffffff167f4d8aead3491b7eba4b5c7a65fc17e493b9e63f9e433522fc5f6a85a168fc9d368c884260405161222c93929190613870565b60405180910390a4600197505050505050505092915050565b60a16020528060005260406000206000915090508060000160009054906101000a900473ffffffffffffffffffffffffffffffffffffffff16908060010154908060020154908060030154908060040154908060050154908060060154908060070154908060080154905089565b60a26020528060005260406000206000915090505481565b6000826000811180156122e057506097548111155b61231f576040517f08c379a0000000000000000000000000000000000000000000000000000000008152600401612316906133b0565b60405180910390fd5b838360a1600083815260200190815260200160002060010154421015801561235d575060a16000838152602001908152602001600020600201544211155b61239c576040517f08c379a000000000000000000000000000000000000000000000000000000000815260040161239390613ee2565b60405180910390fd5b6000811180156123c2575060a16000838152602001908152602001600020600601548111155b612401576040517f08c379a00000000000000000000000000000000000000000000000000000000081526004016123f890613f4e565b60405180910390fd5b612409612bf8565b60a0600087815260200190815260200160002060009054906101000a900460ff161561246a576040517f08c379a000000000000000000000000000000000000000000000000000000000815260040161246190613fba565b60405180910390fd5b600060a1600088815260200190815260200160002060070154116124c3576040517f08c379a00000000000000000000000000000000000000000000000000000000081526004016124ba906142ac565b60405180910390fd5b600060a1600088815260200190815260200160002060030154866124e791906133ff565b905060006124f361134d565b6098548361250191906133ff565b61250b9190613470565b905080341015612550576040517f08c379a000000000000000000000000000000000000000000000000000000000815260040161254790614318565b60405180910390fd5b6000813461255e91906136b9565b90508760a160008b8152602001908152602001600020600601600082825461258691906136b9565b92505081905550600060a160008b8152602001908152602001600020604051806101200160405290816000820160009054906101000a900473ffffffffffffffffffffffffffffffffffffffff1673ffffffffffffffffffffffffffffffffffffffff1673ffffffffffffffffffffffffffffffffffffffff1681526020016001820154815260200160028201548152602001600382015481526020016004820154815260200160058201548152602001600682015481526020016007820154815260200160088201548152505090508060a001518961266691906133ff565b60a260003373ffffffffffffffffffffffffffffffffffffffff1673ffffffffffffffffffffffffffffffffffffffff16815260200190815260200160002060008282546126b49190614046565b925050819055506126e7609d60009054906101000a900473ffffffffffffffffffffffffffffffffffffffff1684612c47565b60008211156126fb576126fa3383612c47565b5b82609c600082825461270d9190614046565b92505081905550600073ffffffffffffffffffffffffffffffffffffffff168a3373ffffffffffffffffffffffffffffffffffffffff167f4d8aead3491b7eba4b5c7a65fc17e493b9e63f9e433522fc5f6a85a168fc9d368c874260405161277793929190613870565b60405180910390a4600197505050505061278f612d3b565b50505092915050565b6127a06129d8565b600073ffffffffffffffffffffffffffffffffffffffff168173ffffffffffffffffffffffffffffffffffffffff160361280f576040517f08c379a0000000000000000000000000000000000000000000000000000000008152600401612806906143aa565b60405180910390fd5b61281881612a56565b50565b609a60009054906101000a900460ff1681565b8160008111801561284157506097548111155b612880576040517f08c379a0000000000000000000000000000000000000000000000000000000008152600401612877906133b0565b60405180910390fd5b6128886129d8565b600060a160008581526020019081526020016000206008015490508260a16000868152602001908152602001600020600801819055507f454e41424c455f4255595f574954485f555344540000000000000000000000007f1b2f8f894211ac7f12917463adb7fc11bb80dec57f46ff148b23b4521968ed7482854260405161291293929190613870565b60405180910390a250505050565b609e60009054906101000a900473ffffffffffffffffffffffffffffffffffffffff1681565b60008260008111801561295b57506097548111155b61299a576040517f08c379a0000000000000000000000000000000000000000000000000000000008152600401612991906133b0565b60405180910390fd5b60a1600085815260200190815260200160002060030154836129bc91906133ff565b915064e8d4a51000826129cf9190613470565b91505092915050565b6129e0612d44565b73ffffffffffffffffffffffffffffffffffffffff166129fe611323565b73ffffffffffffffffffffffffffffffffffffffff1614612a54576040517f08c379a0000000000000000000000000000000000000000000000000000000008152600401612a4b90614416565b60405180910390fd5b565b6000606560009054906101000a900473ffffffffffffffffffffffffffffffffffffffff16905081606560006101000a81548173ffffffffffffffffffffffffffffffffffffffff021916908373ffffffffffffffffffffffffffffffffffffffff1602179055508173ffffffffffffffffffffffffffffffffffffffff168173ffffffffffffffffffffffffffffffffffffffff167f8be0079c531659141344cd1fd0a4f28419497f9722a3daafe3b4186f6b6457e060405160405180910390a35050565b6000808273ffffffffffffffffffffffffffffffffffffffff163b119050919050565b600060019054906101000a900460ff16612b8e576040517f08c379a0000000000000000000000000000000000000000000000000000000008152600401612b85906144a8565b60405180910390fd5b612b9e612b99612d44565b612a56565b565b600060019054906101000a900460ff16612bef576040517f08c379a0000000000000000000000000000000000000000000000000000000008152600401612be6906144a8565b60405180910390fd5b60018081905550565b600260015403612c3d576040517f08c379a0000000000000000000000000000000000000000000000000000000008152600401612c3490614514565b60405180910390fd5b6002600181905550565b80471015612c8a576040517f08c379a0000000000000000000000000000000000000000000000000000000008152600401612c8190614580565b60405180910390fd5b60008273ffffffffffffffffffffffffffffffffffffffff1682604051612cb0906145c6565b60006040518083038185875af1925050503d8060008114612ced576040519150601f19603f3d011682016040523d82523d6000602084013e612cf2565b606091505b5050905080612d36576040517f08c379a0000000000000000000000000000000000000000000000000000000008152600401612d2d90614627565b60405180910390fd5b505050565b60018081905550565b600033905090565b604051806101200160405280600073ffffffffffffffffffffffffffffffffffffffff16815260200160008152602001600081526020016000815260200160008152602001600081526020016000815260200160008152602001600081525090565b600080fd5b6000819050919050565b612dc681612db3565b8114612dd157600080fd5b50565b600081359050612de381612dbd565b92915050565b600060208284031215612dff57612dfe612dae565b5b6000612e0d84828501612dd4565b91505092915050565b60008115159050919050565b612e2b81612e16565b82525050565b6000602082019050612e466000830184612e22565b92915050565b60008060408385031215612e6357612e62612dae565b5b6000612e7185828601612dd4565b9250506020612e8285828601612dd4565b9150509250929050565b612e9581612db3565b82525050565b6000602082019050612eb06000830184612e8c565b92915050565b600080600080600060a08688031215612ed257612ed1612dae565b5b6000612ee088828901612dd4565b9550506020612ef188828901612dd4565b9450506040612f0288828901612dd4565b9350506060612f1388828901612dd4565b9250506080612f2488828901612dd4565b9150509295509295909350565b600073ffffffffffffffffffffffffffffffffffffffff82169050919050565b6000612f5c82612f31565b9050919050565b612f6c81612f51565b8114612f7757600080fd5b50565b600081359050612f8981612f63565b92915050565b60008060408385031215612fa657612fa5612dae565b5b6000612fb485828601612f7a565b9250506020612fc585828601612dd4565b9150509250929050565b600080600080600080600060e0888a031215612fee57612fed612dae565b5b6000612ffc8a828b01612dd4565b975050602061300d8a828b01612dd4565b965050604061301e8a828b01612dd4565b955050606061302f8a828b01612dd4565b94505060806130408a828b01612dd4565b93505060a06130518a828b01612dd4565b92505060c06130628a828b01612dd4565b91505092959891949750929550565b61307a81612f51565b82525050565b60006020820190506130956000830184613071565b92915050565b6000806000606084860312156130b4576130b3612dae565b5b60006130c286828701612f7a565b93505060206130d386828701612f7a565b92505060406130e486828701612f7a565b9150509250925092565b6000806040838503121561310557613104612dae565b5b600061311385828601612dd4565b925050602061312485828601612f7a565b9150509250929050565b61313781612f51565b82525050565b61314681612db3565b82525050565b61012082016000820151613163600085018261312e565b506020820151613176602085018261313d565b506040820151613189604085018261313d565b50606082015161319c606085018261313d565b5060808201516131af608085018261313d565b5060a08201516131c260a085018261313d565b5060c08201516131d560c085018261313d565b5060e08201516131e860e085018261313d565b506101008201516131fd61010085018261313d565b50505050565b600061012082019050613219600083018461314c565b92915050565b600061012082019050613235600083018c613071565b613242602083018b612e8c565b61324f604083018a612e8c565b61325c6060830189612e8c565b6132696080830188612e8c565b61327660a0830187612e8c565b61328360c0830186612e8c565b61329060e0830185612e8c565b61329e610100830184612e8c565b9a9950505050505050505050565b6000602082840312156132c2576132c1612dae565b5b60006132d084828501612f7a565b91505092915050565b6000819050919050565b60006132fe6132f96132f484612f31565b6132d9565b612f31565b9050919050565b6000613310826132e3565b9050919050565b600061332282613305565b9050919050565b61333281613317565b82525050565b600060208201905061334d6000830184613329565b92915050565b600082825260208201905092915050565b7f496e76616c69642070726573616c652069640000000000000000000000000000600082015250565b600061339a601283613353565b91506133a582613364565b602082019050919050565b600060208201905081810360008301526133c98161338d565b9050919050565b7f4e487b7100000000000000000000000000000000000000000000000000000000600052601160045260246000fd5b600061340a82612db3565b915061341583612db3565b925082820261342381612db3565b9150828204841483151761343a576134396133d0565b5b5092915050565b7f4e487b7100000000000000000000000000000000000000000000000000000000600052601260045260246000fd5b600061347b82612db3565b915061348683612db3565b92508261349657613495613441565b5b828204905092915050565b7f436c61696d206e6f7420616c6c6f776564000000000000000000000000000000600082015250565b60006134d7601183613353565b91506134e2826134a1565b602082019050919050565b60006020820190508181036000830152613506816134ca565b9050919050565b7f5a65726f20636c61696d20616d6f756e74000000000000000000000000000000600082015250565b6000613543601183613353565b915061354e8261350d565b602082019050919050565b6000602082019050818103600083015261357281613536565b9050919050565b7f50726573616c6520746f6b656e2061646472657373206e6f7420736574000000600082015250565b60006135af601d83613353565b91506135ba82613579565b602082019050919050565b600060208201905081810360008301526135de816135a2565b9050919050565b6000815190506135f481612dbd565b92915050565b6000602082840312156136105761360f612dae565b5b600061361e848285016135e5565b91505092915050565b7f4e6f7420656e6f75676820746f6b656e7320696e2074686520636f6e7472616360008201527f7400000000000000000000000000000000000000000000000000000000000000602082015250565b6000613683602183613353565b915061368e82613627565b604082019050919050565b600060208201905081810360008301526136b281613676565b9050919050565b60006136c482612db3565b91506136cf83612db3565b92508282039050818111156136e7576136e66133d0565b5b92915050565b60006040820190506137026000830185613071565b61370f6020830184612e8c565b9392505050565b61371f81612e16565b811461372a57600080fd5b50565b60008151905061373c81613716565b92915050565b60006020828403121561375857613757612dae565b5b60006137668482850161372d565b91505092915050565b7f546f6b656e207472616e73666572206661696c65640000000000000000000000600082015250565b60006137a5601583613353565b91506137b08261376f565b602082019050919050565b600060208201905081810360008301526137d481613798565b9050919050565b60006040820190506137f06000830185612e8c565b6137fd6020830184612e8c565b9392505050565b7f416c726561647920706175736564000000000000000000000000000000000000600082015250565b600061383a600e83613353565b915061384582613804565b602082019050919050565b600060208201905081810360008301526138698161382d565b9050919050565b60006060820190506138856000830186612e8c565b6138926020830185612e8c565b61389f6040830184612e8c565b949350505050565b7f5a65726f20707269636500000000000000000000000000000000000000000000600082015250565b60006138dd600a83613353565b91506138e8826138a7565b602082019050919050565b6000602082019050818103600083015261390c816138d0565b9050919050565b7f5a65726f20746f6b656e7320746f2073656c6c00000000000000000000000000600082015250565b6000613949601383613353565b915061395482613913565b602082019050919050565b600060208201905081810360008301526139788161393c565b9050919050565b7f5a65726f20646563696d616c7320666f722074686520746f6b656e0000000000600082015250565b60006139b5601b83613353565b91506139c08261397f565b602082019050919050565b600060208201905081810360008301526139e4816139a8565b9050919050565b60006139f682612db3565b91507fffffffffffffffffffffffffffffffffffffffffffffffffffffffffffffffff8203613a2857613a276133d0565b5b600182019050919050565b600060a082019050613a486000830188612e8c565b613a556020830187612e8c565b613a626040830186612e8c565b613a6f6060830185612e8c565b613a7c6080830184612e8c565b9695505050505050565b600069ffffffffffffffffffff82169050919050565b613aa581613a86565b8114613ab057600080fd5b50565b600081519050613ac281613a9c565b92915050565b6000819050919050565b613adb81613ac8565b8114613ae657600080fd5b50565b600081519050613af881613ad2565b92915050565b600080600080600060a08688031215613b1a57613b19612dae565b5b6000613b2888828901613ab3565b9550506020613b3988828901613ae9565b9450506040613b4a888289016135e5565b9350506060613b5b888289016135e5565b9250506080613b6c88828901613ab3565b9150509295509295909350565b6000613b8482613ac8565b9150613b8f83613ac8565b9250828202613b9d81613ac8565b91507f80000000000000000000000000000000000000000000000000000000000000008414600084121615613bd557613bd46133d0565b5b8282058414831517613bea57613be96133d0565b5b5092915050565b7f496e697469616c697a61626c653a20636f6e747261637420697320616c72656160008201527f647920696e697469616c697a6564000000000000000000000000000000000000602082015250565b6000613c4d602e83613353565b9150613c5882613bf1565b604082019050919050565b60006020820190508181036000830152613c7c81613c40565b9050919050565b7f5a65726f2061676772656761746f722061646472657373000000000000000000600082015250565b6000613cb9601783613353565b9150613cc482613c83565b602082019050919050565b60006020820190508181036000830152613ce881613cac565b9050919050565b7f5a65726f20555344542061646472657373000000000000000000000000000000600082015250565b6000613d25601183613353565b9150613d3082613cef565b602082019050919050565b60006020820190508181036000830152613d5481613d18565b9050919050565b6000819050919050565b600060ff82169050919050565b6000613d8d613d88613d8384613d5b565b6132d9565b613d65565b9050919050565b613d9d81613d72565b82525050565b6000602082019050613db86000830184613d94565b92915050565b7f4e6f742070617573656400000000000000000000000000000000000000000000600082015250565b6000613df4600a83613353565b9150613dff82613dbe565b602082019050919050565b60006020820190508181036000830152613e2381613de7565b9050919050565b7f5a65726f20746f6b656e20616464726573730000000000000000000000000000600082015250565b6000613e60601283613353565b9150613e6b82613e2a565b602082019050919050565b60006020820190508181036000830152613e8f81613e53565b9050919050565b7f496e76616c69642074696d6520666f7220627579696e67000000000000000000600082015250565b6000613ecc601783613353565b9150613ed782613e96565b602082019050919050565b60006020820190508181036000830152613efb81613ebf565b9050919050565b7f496e76616c69642073616c6520616d6f756e7400000000000000000000000000600082015250565b6000613f38601383613353565b9150613f4382613f02565b602082019050919050565b60006020820190508181036000830152613f6781613f2b565b9050919050565b7f50726573616c6520706175736564000000000000000000000000000000000000600082015250565b6000613fa4600e83613353565b9150613faf82613f6e565b602082019050919050565b60006020820190508181036000830152613fd381613f97565b9050919050565b7f4e6f7420616c6c6f77656420746f206275792077697468205553445400000000600082015250565b6000614010601c83613353565b915061401b82613fda565b602082019050919050565b6000602082019050818103600083015261403f81614003565b9050919050565b600061405182612db3565b915061405c83612db3565b9250828201905080821115614074576140736133d0565b5b92915050565b600060408201905061408f6000830185613071565b61409c6020830184613071565b9392505050565b7f4d616b65207375726520746f2061646420656e6f75676820616c6c6f77616e6360008201527f6500000000000000000000000000000000000000000000000000000000000000602082015250565b60006140ff602183613353565b915061410a826140a3565b604082019050919050565b6000602082019050818103600083015261412e816140f2565b9050919050565b600060608201905061414a6000830186613071565b6141576020830185613071565b6141646040830184612e8c565b949350505050565b600081519050919050565b600081905092915050565b60005b838110156141a0578082015181840152602081019050614185565b60008484015250505050565b60006141b78261416c565b6141c18185614177565b93506141d1818560208601614182565b80840191505092915050565b60006141e982846141ac565b915081905092915050565b7f546f6b656e207061796d656e74206661696c6564000000000000000000000000600082015250565b600061422a601483613353565b9150614235826141f4565b602082019050919050565b600060208201905081810360008301526142598161421d565b9050919050565b7f4e6f7420616c6c6f77656420746f206275792077697468204554480000000000600082015250565b6000614296601b83613353565b91506142a182614260565b602082019050919050565b600060208201905081810360008301526142c581614289565b9050919050565b7f4c657373207061796d656e740000000000000000000000000000000000000000600082015250565b6000614302600c83613353565b915061430d826142cc565b602082019050919050565b60006020820190508181036000830152614331816142f5565b9050919050565b7f4f776e61626c653a206e6577206f776e657220697320746865207a65726f206160008201527f6464726573730000000000000000000000000000000000000000000000000000602082015250565b6000614394602683613353565b915061439f82614338565b604082019050919050565b600060208201905081810360008301526143c381614387565b9050919050565b7f4f776e61626c653a2063616c6c6572206973206e6f7420746865206f776e6572600082015250565b6000614400602083613353565b915061440b826143ca565b602082019050919050565b6000602082019050818103600083015261442f816143f3565b9050919050565b7f496e697469616c697a61626c653a20636f6e7472616374206973206e6f74206960008201527f6e697469616c697a696e67000000000000000000000000000000000000000000602082015250565b6000614492602b83613353565b915061449d82614436565b604082019050919050565b600060208201905081810360008301526144c181614485565b9050919050565b7f5265656e7472616e637947756172643a207265656e7472616e742063616c6c00600082015250565b60006144fe601f83613353565b9150614509826144c8565b602082019050919050565b6000602082019050818103600083015261452d816144f1565b9050919050565b7f4c6f772062616c616e6365000000000000000000000000000000000000000000600082015250565b600061456a600b83613353565b915061457582614534565b602082019050919050565b600060208201905081810360008301526145998161455d565b9050919050565b50565b60006145b0600083614177565b91506145bb826145a0565b600082019050919050565b60006145d1826145a3565b9150819050919050565b7f455448205061796d656e74206661696c65640000000000000000000000000000600082015250565b6000614611601283613353565b915061461c826145db565b602082019050919050565b6000602082019050818103600083015261464081614604565b905091905056fea2646970667358221220f62d37968a98e3024cf698d0e01794dc6f9c2e7c1823acf8325cc5d9a27b5b1864736f6c63430008130033",
  "linkReferences": {},
  "deployedLinkReferences": {}
}